:100000000C9427140C944F140C944F140C944F140C
:100010000C944F140C944F140C944F140C944F14D4
:100020000C944F140C944F140C94681F0C94DA1F0A
:100030000C944F140C944F140C944F140C944F14B4
:100040000C944F140C944F140C944F140C944F14A4
:100050000C944F140C944F140C944F140C94561A87
:100060000C944F140C944F140C944F140C944F1484
:100070000C944F140C944F140C944F140C944F1474
:100080000C944E1B0C944F140C944F140C944F145E
:100090000C944F140C944F140C944F140C944F1454
:1000A0000C944F140C944F140C944F14EB23932482
:1000B0009C2437259225AB25EB27F1271328AF2861
:1000C000052D052DFE2CFE2C082D082D082D1E2D8E
:1000D0000C2D0C2D0C2D142D142D182D182D08065B
:1000E000000E0A1F1A3F0E1F0E1F1A3F0A1F000E96
:1000F000000E001F003F081F081F003F001F000EDA
:100100000C070010103E2A7F1A3F123F163F163F81
:10011000123F1A3F2A7F103E00100010003E007F61
:10012000003F103F003F003F103F003F007F003E78
:1001300000100F080030307E4AFF3A7F327F267F62
:10014000267F327F267F267F327F3A7F4AFF307EAE
:1001500000300030007E10FF087F007F187F107F86
:10016000087F107F187F007F087F10FF007E00301F
:10017000170C001010F8E8FC44FED4FE52FFD4FE29
:1001800044FE7CFE44FE54FE54FE54FE44FE7CFEBF
:1001900044FED4FE52FFD4FE44FEE8FC10F80010EA
:1001A00000000007070F040F040F030701030103FA
:1001B0000103030702070307020703070103010303
:1001C00001030307040F040F070F000700000010CE
:1001D00000F800FC40FEA0FE80FFA0FE00FE20FE16
:1001E00000FE20FE80FE20FE00FE20FE00FEA0FE9F
:1001F00080FFA0FE40FE00FC00F800100000000799
:10020000000F000F020F020702030203020302079E
:1002100000070207000702070203020302030207A6
:10022000020F000F000F000700001D10006060F8B3
:1002300098FC24FE14FE50FC54FE52FF54FE50FC69
:1002400074FE04FE54FE50FE54FE50FE54FE04FEA6
:1002500074FE50FC54FE52FF54FE50FC14FE24FE6B
:1002600098FC60F800600003037F7CFF43FF46FFBB
:1002700055FF76FF157F173F173F173F367F247FC7
:10028000367F247F367F247F367F173F173F173F07
:10029000157F76FF55FF46FF43FF7CFF037F00037A
:1002A000006000F800FC80FE00FE80FC00FE80FF85
:1002B00000FE80FC00FE80FE00FE80FE00FE80FE50
:1002C00000FE80FE00FE80FC00FE80FF00FE80FC41
:1002D00000FE80FE00FC00F800600003007F01FFCC
:1002E00004FF03FF0BFF0BFF0B7F083F083F083F96
:1002F000087F037F017F097F017F037F087F083F1D
:10030000083F083F0B7F0BFF0BFF03FF04FF01FFBC
:10031000007F00032716000000C0C0E868FC94FEC0
:1003200054FE58FE54FE5AFF52FF52FF54FE58FE30
:1003300054FED4FE14FED4FE5CFE54FE5CFE54FE5D
:100340005CFED4FE14FED4FE54FE58FE54FE52FF52
:1003500052FF5AFF54FE58FE54FE94FE68FCC0E85B
:1003600000C0000000BFBBFF4DFF36FF7AFF6AFFF1
:100370005BFF6BFF5BFF7BFF7BFF7BFF7BFF7AFFFE
:100380006BFF68FF7BFF4BFF6BFF4BFF6BFF4BFF70
:100390007BFF68FF6BFF7AFF7BFF7BFF7BFF7BFFB1
:1003A0005BFF6BFF5BFF6AFF7AFF36FF4CFFBBFF13
:1003B00000BF001F1F3F103F103F103F133F153F6E
:1003C0001D3F051F050F050F050F050F050F0B1F1F
:1003D0000B1F091F0B1F0B1F091F0B1F0B1F091FD3
:1003E0000B1F0B1F051F050F050F050F050F051F21
:1003F0001D3F153F133F103F103F103F1F3F001F91
:10040000000000C000E800FC00FE00FE00FE00FE50
:1004100000FF00FF00FF00FE00FE00FE00FE00FEE9
:1004200000FE00FE00FE00FE00FE00FE00FE00FEDC
:1004300000FE00FE00FE00FE00FF00FF00FF00FEC9
:1004400000FE00FE00FE00FC00E800C0000000BF4F
:1004500000FF20FF08FF80FF34FFB0FF34FFB0FF34
:1004600034FFB0FF04FF80FF04FF80FF04FF80FF24
:1004700034FF90FF14FF90FF34FF80FF04FF80FFE4
:1004800004FF80FF04FFB0FF34FFB0FF34FFB0FF74
:1004900034FF80FF08FF20FF00FF00BF001F003F68
:1004A000003F003F003F003F023F023F021F020F9C
:1004B000020F020F020F020F001F001F001F001F7C
:1004C000001F001F001F001F001F001F001F021F32
:1004D000020F020F020F020F021F023F023F003FF6
:1004E000003F003F003F003F001F0B080E987D3685
:1004F0003C3C3C367D980E0B0870187DB6BC3CBC6D
:10050000B67D1870D5F08D14A1C881CFD9F1AF2078
:100510000000D75FF57F55FDFF00EBAFFABFAAFEE5
:10052000FF007DF55FD5FF575500BEFAAFEAFFAB80
:10053000AA00D75FD5FF55F5FF00ABBFEAFFABEAD6
:10054000FF007DF57F55FF5F5500FEEABFAAFEBFA5
:10055000AA00577F55FF5755FF00AFBFAAFFAFAAAC
:10056000FF00FDD5FF55FDFF5500FAEAFFAAFAFF8F
:10057000AA0056FF55FD7F55FD00AEFEAAFEBFAA9C
:10058000FA00FC55FF57D5FF5700FAABFFABEAFF67
:10059000AF005EFD57F5FF55F500AEFEABFAFFAAC2
:1005A000FA00F457FD5F55FFFF00FAABFEAFAAFF5C
:1005B000FF00145005405501000028A00A80AA023F
:1005C00000004105501500545500800AA02A00A8DB
:1005D000AA0057401500541500002BA02A00AA0AB3
:1005E00000000115405501405500820A80AA00A074
:1005F000AA005040550050550000A880AA00A8AAA3
:1006000000000515005505005500022A00AA020049
:10061000AA005001550140550500A800AA0280AA71
:100620000200045400541500500002AA00A82A0039
:10063000A8005001540500550500A002A80A00AA10
:100640000A0004540150550000000AA802A0AA00A4
:100650000003061F0E040306040E1F04083E0909CA
:100660003E3F25251A1E2121123F21211E3F25250F
:10067000213F0505011E21293A3F04043F213F2166
:10068000001021211F3F040A313F2020203F020299
:100690003F3F02043F1E21211E3F0909061E211172
:1006A0002E3F09093622252519013F01011F20206F
:1006B0001F0F10201F3F10103F3B04043B03043862
:1006C00007312D2321102A2A3C3F2424181C2222E2
:1006D000141824243F1C2A2A2C043E05014C525293
:1006E0003E3F040438243D20004040443D3F081470
:1006F00022213F20003E04043E3E04023C1C2222F4
:100700001C7E22221C1C22227E3E040204242A2A51
:1007100012021F22201E20201E0E10201E3E10102E
:100720003E360808364E50503E322A26221E2925D3
:100730001E223F2000322929261221251A0C0A3FA9
:1007400008172525191E252518013905031A252501
:100750001A0629291E002F0000002000000229058A
:1007600002000404008040000000000000000000BF
:10077000000000000000000000303030F0F03030A9
:1007800030C0E07030303070E0C00000F0F0303049
:1007900030F0E0000000000000F0F030303070E099
:1007A000C00000F0F030303030F0E00000F0F00039
:1007B00010F0E0000000E0F01000F0F030303030D9
:1007C000300000F0F030303030F0E00000E0F03089
:1007D00030307060000000000000000000000000E9
:1007E0000000000000000000000000000000000009
:1007F0000000000000000000000000002B2B0000A3
:10080000000B0B28202020280B0B00002B2B0303B0
:100810000303010000000000002B2B202020280BE8
:100820000B00002B2B0303030B292020002B2B0094
:100830000000032B282B030000002B2B2323232352
:100840002300002B2B0303030B29202000092B235B
:1008500023232B0A0000000000000000000000001D
:100860000000000000000080808080808080808008
:1008700080808080808080808082848404C404049E
:100880000404040404040404040404040404040428
:100890000404040404040404040404040404040418
:1008A0000404040404040404040404040404040408
:1008B00004040404040404040404040404040404F8
:1008C00004040404040404040404040404040404E8
:1008D0000404C4048484828080808080808080803E
:1008E00080808080808080FFFDFFFDFFFDFFFDFF99
:1008F000FDFFFDFFFDFFFDFFFDFFFDFF00FF000011
:1009000000000000000000000000000000000000E7
:1009100000000000000000000000000000000000D7
:1009200000000000000000000000000000000000C7
:1009300000000000000000000000000000000000B7
:1009400000000000000000000000000000000000A7
:100950000000FF00FDFFFDFFFDFFFDFFFDFFFDFFB0
:10096000FDFFFDFFFDFFFDFDFAFDFAFDFAFDFAFDBD
:10097000FAFDFAFDFAFDFAFDFAFDFAFD00FF0000AE
:100980000000000000000000000000000000000067
:100990000000000000000000000000000000000057
:1009A0000000000000000000000000000000000047
:1009B0000000000000000000000000000000000037
:1009C0000000000000000000000000000000000027
:1009D0000000FF00FAFDFAFDFAFDFAFDFAFDFAFD4E
:1009E000FAFDFAFDFAFDFAD5ABD5ABD5ABD5ABD553
:1009F000ABD5ABD5ABD5AB552B552B9500FF000038
:100A000000000000000000000000000000000000E6
:100A100000000000000000000000000000000000D6
:100A200000000000000000000000000000000000C6
:100A300000000000000000000000000000000000B6
:100A400000000000000000000000000000000000A6
:100A50000000FF0013254B858B152BD5ABD5ABD5EF
:100A6000ABD5ABD5ABD5ABFFFFFFFFFF7F7F3F9F84
:100A70008F472723110904040201010000FF000031
:100A80000000000000000000000000000000000066
:100A90000000000000000000000000000000000056
:100AA0000000000000000000000000000000000046
:100AB0000000000000000000000000000000000036
:100AC0000000000000000000000000000000000026
:100AD0000000FF00000000000001020408111327BD
:100AE000478F1F3F7F3F7F2311110804020201003F
:100AF000000000000000000000000000007F808077
:100B000080808080808080808080808080808080E5
:100B100080808080808080808080808080808080D5
:100B200080808080808080808080808080808080C5
:100B300080808080808080808080808080808080B5
:100B400080808080808080808080808080808080A5
:100B500080807F0000000000000000000000000016
:100B6000000001010204087D1C00000000000000DC
:100B7000000000C0F07C1E0E0606060626363E1E4D
:100B800006C0F83E06060606C6FEFEFE0E00F0FE95
:100B9000FEFEFEF8800080C0F0FCFEFEFE0000FEBF
:100BA000FEFE060606060606000000FCFEFEFE022D
:100BB0000202067E7EFCE0001E7EFEFEFCE00000DF
:100BC00000FEFEFE0000003EFEFEC6060606000019
:100BD000063EFAE2820202041C78C0808080000097
:100BE0000000000000000000000000C0E0F83E0F20
:100BF000070100000486E6FEFE7E0EC0F8FEFF0739
:100C00000606060606FFFFFF0300FCFFFF7F07FF47
:100C1000FFFFFE7F0FFFFFFFFFFF0000FFFFFF0E44
:100C20000E0E0E0C00000000FFFFFFFF0000000092
:100C30000000FFFFFC0000030F7FFFFFF8E0FFFF55
:100C4000FFF80000007FFFFFFE8E0E0E0C00000379
:100C50003FFFFEFEE282020303030F7FFFFEF8E088
:100C60000000000000505C5F5F59585858585858B1
:100C7000585E5F5F4F03185E5F5F47000000000033
:100C8000005F5F5F03005F5F5F5F00005F5F5F07A4
:100C90000000015F5F5F5F00005F5F5F585858585A
:100CA00058580000000F5F5F5F5858585858585FF9
:100CB0005F0F0000000000034F5F5F5F5F5F5F003A
:100CC0000000004F5F5F5F5C585858585800014F54
:100CD0005F5F5F1C0000000000475F5F5F5F1C00FC
:100CE00000000001050505050505050505050505C7
:100CF00005050504000105050504000000000505C3
:100D000005000005050505000005050500000000BB
:100D10000505050500000505050505050505050092
:100D2000000000050505050505050505050500008C
:100D30000000000000050505050501000000000099
:100D40000505050505050505010004050505010066
:100D500000000000040505050501000000FF050373
:100D600002010708FF0139453901FFFF01497D41B3
:100D700001FFFF0165554901FFFF0155552901FF9D
:100D8000FF0131297D01FFFF015D552501FFFF01B5
:100D900039552101FFFF0105750D01FFFF0129559F
:100DA0002901FFFF0109553901FF0606000C0C1E41
:100DB0001A3F123F0C1E000C02030403121100FC28
:100DC000FCFE02FF02FF7CFE40FC40FC7CFE02FFBA
:100DD00002FF7CFE40FC40E040E040E080C000803C
:100DE0000000007F7FFF80FF80FF7EFF027F027F89
:100DF0007EFF80FF80FF7EFF027F027F7EFF80FFFD
:100E000080FF7FFF007F0000000000010001000064
:100E100000000000000000010001000000000000D0
:100E200000000001000100000000070800FEC6BA33
:100E3000C6FE0000FEB682BEFE0000FE9AAAB6FE06
:100E40000000FEAAAAD6FE0000FECED682FE00005A
:100E5000FEA2AADAFE0000FEC6AADEFE0000FEFA2E
:100E60008AF2FE0000FED6AAD6FE0000FEF6AAC652
:100E7000FE00171900FCFCFE02FFFAFFFAFFFAFF62
:100E8000FAFFFAFF02FFFAFFFAFFFAFFFAFFFAFF92
:100E900002FFFAFFFAFFFAFFFAFFFAFF02FFFCFE79
:100EA00000FC00FFFFFF00FF23FF83FF2BFFA3FFDA
:100EB0000BFF68FFA3FF63FFB3FF7BFFFBFFE8FFB0
:100EC0006BFFB3FF63FFA3FF43FF00FFFFFF00FFC4
:100ED000007F7FFF80FFB4FF84FFB4FF84FFB4FF77
:100EE00084FFB4FF85FFB4FF84FFB4FF84FFB4FF29
:100EF00084FFB5FF84FFB4FF80FF7FFF007F000009
:100F000000000001000100010001000100010001DA
:100F100000010001000100010001000100010001C9
:100F200000010001000100010000000000000000BD
:100F300000000000000000000000000000000000B1
:100F4000000000000000000000000000010101019D
:100F5000010101020000000000000000000000008C
:100F6000000000000000000000000000010101017D
:100F7000010101010000000000000000000000006D
:100F80000000000000000000000000000202020259
:100F90000202020202020000000000000000000045
:100FA00000000000000000000000000019171512EA
:100FB000100E0C0B090807060505040404040303BE
:100FC00003020202020202010000000019171512BA
:100FD000100E0C0B090807060505040403030303A0
:100FE000030202020202020100000000191715129A
:100FF000100E0C0B09080706050504040303030380
:101000000302020202020201000000001917151279
:10101000100E0C0B0908070605050404030303035F
:101020000302020202020201000000002B0600007F
:1010300000000000000000000018183C383C3C3E56
:101040003C3E383C383C3038203030383038203066
:101050000020000000000000000000000000000070
:10106000002020303038303820303038383C383CA0
:101070003C3E3C3E383C183C00180000000000009C
:10108000000000000010103C0C3E363F1A3F2A3F83
:101090003C3E3C3E3E3F3E3F3C3E3C3E383C1038B2
:1010A0000010000000000000000000000000000030
:1010B00000000000000000000000000000101038D8
:1010C000383C3C3E3C3E3E3F3E3F3C3E3C3E2A3F61
:1010D0001A3F363F0C3E103C00100000000000306C
:1010E0003038183C283C383C3038303820303038E4
:1010F0003038003000000000000000000000000058
:1011000000000000000000000000000000000000DF
:101110000000000000000030303830382030303817
:101120003038383C283C183C303800300000000093
:101130002B1900000000000000A0A0F050F8A8FC4F
:10114000A8FC88FCB0F888FCB4FEBAFFBAFF92FF96
:10115000AAFF94FE88FCB8FCA8FCA8FC88FCA8FCAC
:1011600088FCA8FCA8FCA8FCA8FC98FCA8FCB4FE81
:10117000B4FE94FEA8FC98FCA8FCA8FC50F8A0F0D3
:1011800000A000000000000000F0F0FC0CFF13FFC6
:10119000C8FF26FF15FF56FF92FF52FF92FF12FF76
:1011A00012FF12FF12FF16FF10FF1FFF10FFD2FFEA
:1011B00052FFD2FF52FFD2FF10FF1FFF10FF16FF9A
:1011C00012FF12FF12FF12FF92FF52FF92FF56FF13
:1011D00015FF26FFCCFF13FF0CFFF0FC00F0000012
:1011E000007F7FFF80FFA0FFA1FFA2FFA2FF8AFF79
:1011F0008AFF6AFF2A7F2A7F2A7F2A7F2A7F52FF5F
:1012000052FF5AFF52FF52FF5AFF52FF52FF5AFF3E
:1012100052FF52FF6AFF2A7F2A7F2A7F2A7F6AFFB6
:101220008AFFAAFFA2FFA2FFA1FFA0FF80FF7FFF0E
:10123000007F00000000000000000001000100012C
:10124000000100010001000100000000000000009A
:10125000000000000000000000000000000000008E
:10126000000000000000000000000000000000007E
:101270000000000000000001000100010001000169
:10128000000100010000000000000000000000005C
:1012900000A0A0F050F8A8FCA8FC88FCB0F888FCDE
:1012A000B4FEBAFFBAFF92FFAAFF94FE88FCB8FC16
:1012B000A8FCA8FC88FCA8FC88FCA8FCA8FCA8FC4E
:1012C000A8FC98FCA8FCB4FEB4FE94FEA8FC98FC14
:1012D000A8FCA8FC50F8A0F000A00000000000004E
:1012E00000F0F0FC0CFF13FFC8FF26FF15FF56FFB0
:1012F00092FF52FF92FF12FF12FF12FF12FF16FF22
:1013000010FF1FFF10FFD2FF52FFD2FF52FFD2FF8C
:1013100010FF1FFF10FF16FF12FF12FF12FF12FF38
:1013200092FF52FF92FF56FF15FF26FFCCFF13FFDF
:101330000CFFF0FC00F00000007F7FFF80FF94FFB7
:1013400091FF92FF82FF8AFF8AFF6AFF2A7F2A7F2E
:101350002A7F2A7F2A7F52FF52FF5AFF52FF52FFF5
:101360005AFF52FF52FF5AFF52FF52FF6AFF2A7F75
:101370002A7F2A7F2A7F6AFF8AFF8AFF82FF92FFE5
:1013800091FF90FF80FF7FFF007F000000000000C2
:101390000000000100010001000100010001000146
:1013A000000000000000000000000000000000003D
:1013B000000000000000000000000000000000002D
:1013C000000000000000000000000000000000011C
:1013D0000001000100010001000100010000000007
:1013E00000008010FF7F3F3F3F1F5F5F5F5F2F2741
:1013F00047931B1B1B13070F0F1F3F7FFF7F7F7739
:101400006B6D656B6B6D6D6B777F7F7F7F7F7F7F94
:101410007F7F7F7F7F7F7F7F7F7F7F7F7F7F7F7FDC
:101420007F7F7F7F7F7F7F7F7F7F7F7F7F7F7F7FCC
:101430007F7F7F7F7F7F7F7F7F7F7F7F7F7F7F7FBC
:101440007F7F7F7F7F7F7F7F7F7F7BF57632353524
:101450001656555B5F2F2747931B1B1B13070F0F58
:101460001F3F7FFF01010101010101010101010194
:10147000010101010101010101010101010101015C
:10148000010101010101010101010101010101014C
:10149000010101010101010101010101010101013C
:1014A000010101010101010101010101010101012C
:1014B000010101010101010101010101010101011C
:1014C000010101010101010101010101010101010C
:1014D00001010101010101010101010101010101FC
:1014E000010101010080C0C0C0E0A0A0A0A0D0D830
:1014F000B86CE4E4E4ECF8F0F0E0C08000808088B0
:1015000094929A9494929294888080808080808033
:1015100080808080808080808080808080808080CB
:1015200080808080808080808080808080808080BB
:1015300080808080808080808080808080808080AB
:1015400080808080808080808080840A89CDCACA23
:10155000E9A9AAA4A0D0D8B86CE4E4E4ECF8F0F0CF
:10156000E0C080000000000000000000000000005B
:10157000000000000000000000000000000000006B
:10158000000000000000000000000000000000005B
:10159000000000000000000000000000000000004B
:1015A000000000000000000000000000000000003B
:1015B000000000000000000000000000000000002B
:1015C000000000000000000000000000000000001B
:1015D000000000000000000000000000000000000B
:1015E00000000000000000000040000000010000BA
:1015F000387CFEC6820000000000000000000000F1
:1016000000040000000000000000000000000000D6
:1016100000000000000000000000000000000000CA
:1016200000000000000000000000000000000000BA
:1016300000000000000000000000000000020000A8
:10164000000020000000000000001000000000006A
:10165000000000000000040E040000000000000074
:1016600000000000202020303838383834360E3C56
:101670003C3830002020202020202028202020203E
:101680002020202020012030383830083C3C3C3CD1
:101690003820202020202020202020202020202032
:1016A000202020202020202020202020202020203A
:1016B00020202020202020003038383838302020CA
:1016C00022202020202030383E3E3E3E3E3E3C3808
:1016D00038302020202020202020202020202020E2
:1016E000202020200A090F430043004500470049FD
:1016F000004D00510055003D003C003B00390036D4
:101700000033002F002A004A004D005200590062A9
:10171000006E007D008E000002060C141E2A383573
:101720000032002E0026001D0011000200F2FF20F2
:10173000160E08040201001F08031C700F00304839
:1017400070007C0870087000F84830007400781051
:10175000007A00304800586816077F090175007F3D
:10176000007C0870087000304830027F0230485812
:10177000050A0104104000000000000100041040B0
:101780000000000000010100104000000000000106
:1017900001040040000000000001010410000000EE
:1017A00000000001010410400000000000000D0ACC
:1017B000000001071F7CFF3F077168C81C00000084
:1017C000000000000003010100004F0F00E078FC62
:1017D0001C0E0E0E1E3C3C100000FE7E7E4E4E4E39
:1017E0004E4EFEFC780000FE7E7E4E4E4E4E4E4E1D
:1017F000CE0000FE7EFE0E0E0E0E1EFC7CF00000E3
:10180000FE7EFE000E0E0E0EFE7EFE0E0E0E0E0074
:1018100078FCFE4E4E4E4E9E9C180000030D171491
:1018200028282824161E0400003F253F0101030537
:101830001D262C3020003F252F2929292929293927
:1018400000003F25272828282824171D0700003FCF
:10185000253F00000000003F253F00000000000C75
:1018600014242929292927150F0083009900000035
:101870004C00B900990000004C00B900990000002C
:101880004C00B900990000004C0083009900000052
:101890004C00B9007300B900260000004C00B900EC
:1018A000990000004C00B900990000004C00B900FC
:1018B0004C00B9004C0000004C00B9007300B900A6
:1018C000260000004C00B900990000004C00830085
:1018D000990000004C00B900990000004C00830002
:1018E000990083004C0083004C0001800000E6005A
:1018F0001704E6001704E6001704180000005B0058
:10190000BA02180000005B00A403E600A403E6008E
:10191000A403E600A403180000005B006E02180098
:1019200000005B00DD04E600DD04E6007505E6006E
:10193000000005002006B601000011002D08E60099
:101940002D08E6002D08E6000000E6001704E6007A
:101950001704E6001704180000005B00BA02180024
:1019600000005B00A403E600A403E600A403E60075
:10197000A403180000005B006E02180000005B006A
:101980007D06E6007D06E6004907E600000005004A
:101990002D08B601000011002D08E6002D08E60014
:1019A0002D08E6000180524F434B2039342E36007B
:1019B000415244582038392E3900524144494F2071
:1019C0004F4646000000000000000000C020D0D0BC
:1019D000D0D0D0D0D020C000C020D0D0D0D0D0D057
:1019E000D0D0D0D0A040C020D0D0D0D0D0D0D0D077
:1019F000D0D0A04080C020D0D0D0D0D02020D0D017
:101A0000D0D0D020C000000000F008E4141414145A
:101A10001414141414141414141414141414141486
:101A20001414141414141414141414141414141476
:101A30001414141414141414141414141414141466
:101A400014141414FCECFCECFCECFC3CC3FCFFFF99
:101A50007F037FFFFFFCC33CFF00FFFFFFFFFFC3CF
:101A6000C3FFFFFF7F9EE000FFFFFFFFFF030303B5
:101A7000FFFFFFFFFC0300FFFFFFFFFF0000FFFF72
:101A8000FFFFFF00FF00000000EFA0AFA0A0A0A09C
:101A9000A0A0A0A0A0A0A0A0A0A0A020E0E0E0E0C6
:101AA0006020A0A0A020A0A020A020A0A0A0202076
:101AB000A0A0A0A0A0A0A0A0A0A0A0A0A0A0A0A026
:101AC000A0A0A0A0EFD7EFD7EF3FC3FCFFFFFF7FA1
:101AD0001E5E1E7FFFFFFFFCC300FFFFFFFFFF0135
:101AE00001FFFFFFFFFE8100FFFFFFFFFFF0F0F0AF
:101AF000FFFF7F3F4F70601F7F7FFFFFE0E0FFFF32
:101B00007F7F1FE01F00000000FF070383C1E0F09C
:101B1000F078383838383878F0F0E0C080010307C2
:101B20008C888B8B888A888B888A888B8B8B88881B
:101B30008B8A8A8A8A8A8A8A8A8A8A8A8A8A8A8A04
:101B40008A8A8A8AAF5FAF5FAEFE06FAFAFAFAFABD
:101B50007A7AFAFAFAF6CA327A8EF636DAEA6A2A25
:101B6000EAFAF6F68A72827A86FAFAFA7AFAFAFAD1
:101B7000867E86FA06FAFAFAFAFA7A7A7AFAFAF6A1
:101B8000EA92628201061E7C00FF38FFFFFFC70158
:101B90000000000000000001C639C7FFFFFF380049
:101BA000FF0040FEEA7E407E6A7E4040404040406A
:101BB000404040C0C04040404040406E6A7E407E51
:101BC000687840401E0D0E8542FF00FFAFAFAFEFBB
:101BD0002828EFAFBFEFD33C00FFAFAFFF003C3C86
:101BE00000FFAFAFFF0087F8AFAFFFCFC0CFFFAFB1
:101BF000AFF8877F00FFAFAFAFFF000000FFAFAFD0
:101C0000AFFF00FF0000000000FF000103070F1FEF
:101C10001E3C3A3A3A3A3A3D1E1F0F0703010000B4
:101C20008744444444444444444484040484444431
:101C30004444444444444484040484444444444464
:101C40004444444402010120504FC05F5050505F53
:101C500040405F5050505F504E414F485D57545682
:101C6000575B4C4F41585751505C4E424A424E5C74
:101C700050515758405F5050505352525253504851
:101C800046C956210000000000FF000000010701C6
:101C90000007040700070207000705000000000016
:101CA0003F404040515F504040403F00003F404077
:101CB000405D55574040403F00003F404040555533
:101CC0005F4040400000000000FF00FE0101217164
:101CD000F901F971210101718901F921F901F12954
:101CE000F101F911F9017189C901F9A9010101098C
:101CF000F9090179817901F911F901F9A9010101C4
:101D0000FE00FF000000000000FF000000000000D7
:101D10000000000000000000000000000000FE00C5
:101D2000A8AAAAAAAAAAAAAAAAAAAAAAAAAAAAAA15
:101D3000AAAAAAAAAAAAAAAA02E2121202E252E233
:101D4000027252D200000000000708131414141489
:101D50001414141414141414141414141414141443
:101D60001414141414141414141414141414141433
:101D70001414141414141414141414141414141423
:101D80001308070000000000001F3C3830282828F6
:101D900028282828282828282828282828203F30AC
:101DA0003232323232323232323232323232323213
:101DB00032323232323232323434353534353435EF
:101DC0003435353500000000000000000000000040
:101DD0000000000000000000000000000000000003
:101DE00000000000000000000000000000000000F3
:101DF00000000000000000000000000000000000E3
:101E000000000000000000000000000000000000D2
:101E100000000000000000000000000000000000C2
:101E200000000000000000000000000000000000B2
:101E300000000000000000000000000000000000A2
:101E40000000000000000000000000000000000092
:101E50000000000000000000000000000000000082
:101E60000000000000000000000000000000000072
:101E700000000080808080808000000000808080E2
:101E800080808080800000000000000000000000D2
:101E90000000000000000000000000000000000042
:101EA0000000000000000000000000000000000032
:101EB0000000000000000000000000000000000022
:101EC0000000000000000000000000000000000012
:101ED0000000000000000000000000000000000002
:101EE00000000000000000000000000000000000F2
:101EF000020A2AA8A38F3FFFFFFEF08000FFFFFF2A
:101F0000FFFFFFFF0700000000000080808080C00E
:101F1000C000800000000000000000000000000081
:101F200000000000000000000000000000000000B1
:101F300000000000000000000000000000000000A1
:101F40000000000000000000000000000000000091
:101F50000000000000000000000000000000000081
:101F60000000000000000000000000000000000071
:101F700000000000020A0A28A3871F7FFCFFFFFF62
:101F8000FFFF7F01F0F8FCFE06A30B07073F0F23BE
:101F90000802000000000000000000000000000037
:101FA0000000000000000000000000000000000031
:101FB0000000000000000000000000000000000021
:101FC0000000000000000000000000000000000011
:101FD0000000000000000000000000000000000001
:101FE00000000000000000000000000000000000F1
:101FF000000000000000000000020A28A1871F7FE7
:10200000FF1F0080F1F3F3636322B21E202800005B
:1020100000000000000000000000000000000000C0
:1020200000000000000000000000000000000000B0
:1020300000000000000000000000000000000000A0
:102040000000000000000000000000000000000090
:102050000000000000000000000000000000000080
:102060000000000000000000000000000000000070
:1020700000000000000000080808C808884A8A48D4
:10208000480888498908CA480948C8480808080013
:102090000000000000000000000000000000000040
:1020A0000000000000000000000000000000000030
:1020B0000000000000000000000000000000000020
:1020C0000000000000000000000000000000000010
:1020D0000000000000000000000000000000000000
:1020E00000000000000000000000000000000000F0
:1020F00000000000000000000000000300000203D8
:1021000003000102010003010000030000000000C1
:1021100000000000000000000000000000000000BF
:1021200000000000000000000000000000000000AF
:10213000000000000000000000000000000000009F
:10214000000000000000000000000000000000008F
:10215000000000000000000000000000000000007F
:10216000000000000000000000000000000000006F
:10217000000000000000000000000000000000005F
:10218000000000000000000000000000000000004F
:10219000000000000000000000000000000000003F
:1021A000000000000000000000000000000000002F
:1021B000000000000000000000000000000000001F
:1021C0000000000004083E09093E3F25251A1E2193
:1021D00021123F21211E3F2525213F0505011E21FA
:1021E000293A3F04043F213F21001021211F3F04D1
:1021F0000A313F2020203F02023F3F02043F1E21C0
:10220000211E3F0909061E21112E3F0909362225EC
:102210002519013F01011F20201F0F10201F3F1013
:10222000103F3B04043B03043807312D2321102ABF
:102230002A3C3F2424181C2222141824243F1C2A40
:102240002A2C043E05014C52523E3F040438243DE2
:1022500020004040443D3F081422213F20003E041E
:10226000043E3E04023C1C22221C7E22221C1C2214
:10227000227E3E040204242A2A12021F22201E204B
:10228000201E0E10201E3E10103E360808364E50FE
:10229000503E322A26221E29251E223F20003229A6
:1022A00029261221251A0C0A3F08172525191E2553
:1022B0002518013905031A25251A0629291E002F7C
:1022C00000000020000002290502000404000102B1
:1022D00004081020408000000000003E5B4F5B3E81
:1022E0003E6B4F6B3E1C3E7C3E1C183C7E3C181CDB
:1022F000577D571C1C5E7F5E1C00183C1800FFE7D2
:10230000C3E7FF0018241800FFE7DBE7FF30483A77
:10231000060E2629792926407F050507407F0525D9
:102320003F5A3CE73C5A7F3E1C1C08081C1C3E7F61
:1023300014227F22145F5F005F5F06097F017F0028
:102340006689956A606060606094A2FFA294080448
:102350007E040810207E201008082A1C08081C2A69
:1023600008081E101010100C1E0C1E0C30383E38C1
:1023700030060E3E0E06000000000000005F000068
:102380000007000700147F147F14242A7F2A1223D9
:102390001308646236495620500008070300001CE9
:1023A0002241000041221C002A1C7F1C2A08083EF2
:1023B0000808008070300008080808080000606005
:1023C0000020100804023E5149453E00427F400073
:1023D00072494949462141494D331814127F10274B
:1023E000454545393C4A494931412111090736499A
:1023F000494936464949291E00001400000040346E
:102400000000000814224114141414140041221472
:102410000802015909063E415D594E7C1211127C99
:102420007F494949363E414141227F4141413E7FFA
:10243000494949417F090909013E414151737F08DA
:1024400008087F00417F41002040413F017F081480
:1024500022417F404040407F021C027F7F040810E1
:102460007F3E4141413E7F090909063E4151215EBF
:102470007F09192946264949493203017F01033F53
:102480004040403F1F2040201F3F4038403F6314E2
:1024900008146303047804036159494D43007F41E4
:1024A00041410204081020004141417F0402010221
:1024B0000440404040400003070800205454784046
:1024C0007F284444383844444428384444287F38DA
:1024D0005454541800087E090218A4A49C787F085C
:1024E00004047800447D40002040403D007F1028D7
:1024F000440000417F40007C047804787C08040498
:10250000783844444438FC1824241818242418FC2F
:102510007C08040408485454542404043F44243CD4
:102520004040207C1C2040201C3C4030403C442843
:102530001028444C9090907C4464544C44000836DD
:10254000410000007700000041360800020102044B
:10255000023C2623263C1EA1A161123A4040207A6B
:1025600038545455592155557941215454784121B5
:102570005554784020545579400C1E5272123955EA
:1025800055555939545454593955545458000045E7
:102590007C410002457D420001457C40F029242910
:1025A000F0F0282528F07C545545002054547C54E4
:1025B0007C0A097F49324949493232484848323217
:1025C0004A4848303A4141217A3A42402078009DB9
:1025D000A0A07D39444444393D4040403D3C24FF67
:1025E0002424487E4943662B2FFC2F2BFF0929F614
:1025F00020C0887E090320545479410000447D4165
:102600003048484A32384040227A007A0A0A727DBD
:102610000D19317D2629292F2826292929263048D8
:102620004D4020380808080808080808382F10C846
:10263000ACBA2F102834FA00007B000008142A14CA
:102640002222142A14089500220095AA005500AAF7
:10265000AA55AA55AA000000FF00101010FF001490
:102660001414FF001010FF00FF1010F010F01414ED
:1026700014FC001414F700FF0000FF00FF1414F412
:1026800004FC141417101F10101F101F1414141F13
:1026900000101010F0000000001F101010101F108C
:1026A000101010F010000000FF101010101010108B
:1026B0001010FF10000000FF140000FF00FF0000DA
:1026C0001F10170000FC04F414141710171414F44E
:1026D00004F40000FF00F714141414141414F70089
:1026E000F7141414171410101F101F141414F414DA
:1026F0001010F010F000001F101F0000001F140049
:102700000000FC140000F010F01010FF10FF141473
:1027100014FF141010101F00000000F010FFFFFF46
:10272000FFFFF0F0F0F0F0FFFFFF0000000000FFFF
:10273000FF0F0F0F0F0F38444438447C2A2A3E14F1
:102740007E02020606027E027E026355494163381C
:1027500044443C04407E201E2006027E020299A5CD
:10276000E7A5991C2A492A1C4C7201724C304A4D2B
:102770004D303048784830BC625A463D3E49494960
:10278000007E0101017E2A2A2A2A2A44445F444409
:1027900040514A444040444A51400000FF0103E098
:1027A00080FF000008086B6B083612362436060FCF
:1027B000090F06000018180000001010003040FF3C
:1027C0000101001F01011E00191D1712003C3C3CB5
:1027D0003C0000000000080B000202020100090496
:1027E000000001020200000524001001052401017F
:1027F00001042402060524060001070581031000D8
:102800004009040100020A0000000705020240001E
:1028100000070583024000000403090412010002BE
:10282000EF020140412336800001010203014172A1
:102830006475696E6F204C4C430041726475696E1B
:102840006F204C656F6E6172646F00000C30112454
:102850001FBECFEFDAE0DEBFCDBF12E0A0E0B1E0F7
:10286000EEE6F4E602C005900D92A83BB107D9F759
:1028700027E0A8EBB2E001C01D92A23DB207E1F74C
:1028800014E1C7E2D4E104C02197FE010E942A327C
:10289000C632D107C9F70E940A220C9435320C9433
:1028A0000000FC018091CF02811103C08FEF9FEFE8
:1028B00008959FB7F89482E08093E9002091F20098
:1028C00030E01216130614F421E030E02115310532
:1028D00059F0289884E68093CE028091F10080839D
:1028E0008091F200882319F09FBFC90108958BE6FB
:1028F0008093E800F9CF2FB7F89483E08093E90044
:102900009091E800892F807295FF04C09091F200A9
:1029100080E4891B2FBF0895CF93DF931F92CDB71B
:10292000DEB76983DC01ED91FC910280F381E02D3B
:1029300041E050E0BE016F5F7F4F09950F90DF913E
:10294000CF91089583E08093E9008091F20088237D
:1029500019F08AE38093E80008950E947B1490E0C8
:102960000895CF93DF931F92CDB7DEB7FC01848526
:10297000958597FD05C02FEF3FEF358724870BC066
:10298000CE0101960E945114019719F4898190E0BB
:1029900002C08FEF9FEF0F90DF91CF9108950F93BB
:1029A0001F93CF93DF931F92CDB7DEB78C01FC014D
:1029B0008485958597FF0EC0CE0101960E94511423
:1029C000019719F4298130E002C02FEF3FEFF801A1
:1029D00035872487F801848595850F90DF91CF9105
:1029E0001F910F9108958F929F92AF92BF92CF92B5
:1029F000DF92EF92FF920F931F93CF93DF935C01CF
:102A00006B017A0180910901882309F45BC08091F0
:102A1000CF02882309F456C08091CD0280FF05C003
:102A20008091E00082608093E000E70110E00AEF0F
:102A300083E0882E9AE3992E2097D9F10E947B1487
:102A400081110AC0015009F43DC061E070E080E0EE
:102A500090E00E941C1AF0CF282F30E0C217D30755
:102A60000CF48C2F4FB7F8948092E9009091E80015
:102A700095FF1DC0282F30E0C21BD30BF601982F05
:102A8000915020F081918093F100FACFC20ED31EB5
:102A9000112319F09092E80009C08091E80085FDAB
:102AA00006C09092E80011E0209709F010E04FBFB7
:102AB000C3CF1111C3CF5D9884E68093CC021E145E
:102AC0001F0444F081E090E0F5019383828380E06D
:102AD00090E001C0C701DF91CF911F910F91FF904E
:102AE000EF90DF90CF90BF90AF909F908F90089520
:102AF0000F931F93CF93DF938C01EB010E947D31E5
:102B00008883C80101960E947D318983CE01DF91BF
:102B1000CF911F910F9108958091FD0680351CF48F
:102B20008F5F8093FD068091FD068F3014F49FE047
:102B300003C087342CF096E4981B90930207089505
:102B40001092020708958091FD0686301CF0815096
:102B50008093FD068091FD068F3014F49FE003C042
:102B600087342CF096E4981B9093020708951092F6
:102B70000207089580910107813069F02CF48111DA
:102B800018C080E091E00CC0823041F0833089F4BD
:102B900080E094E005C080E092E002C080E093E035
:102BA00090930107809300078AE18093090781E0F1
:102BB000089580E0089580910107823079F03CF417
:102BC0008130B9F4109201071092000710C08330D1
:102BD00041F0843071F480E093E005C080E091E042
:102BE00002C080E092E0909301078093000781E0AB
:102BF000089580E008950F931F93CF93DF93C0E073
:102C0000D0E000E810E020E040910A01BE0180E041
:102C100090E00E94291C80910A01BE016F5F7F4FE6
:102C200020E0482FF801E81BF109CF010E94291C80
:102C30002296C034D10539F7DF91CF911F910F91C2
:102C4000089520913107282329F490913007982383
:102C500081E009F480E008956F927F928F929F92B5
:102C6000AF92BF92CF92DF92EF92FF920F931F939A
:102C7000CF93DF9300D000D0CDB7DEB7DC01411594
:102C8000510509F4E8C1FA011491319694916A0151
:102C9000F2E0CF0ED11CE12EF12C222309F1492FB5
:102CA000469546954695E42FF0E041E050E0892FA7
:102CB000877011F440E050E04E0F5F1FE49EF0017A
:102CC000E59EF00DF49EF00D1124033011F4EE0F8B
:102CD000FF1F2E9FA0012F9F500D1124C40ED51E43
:102CE0000F3F09F402E0AD014E0D5F1D14161506ED
:102CF0000CF0B1C1A038B1050CF0ADC19B01290F9A
:102D0000311D121613060CF0A6C1603471050CF0CB
:102D1000A2C1C114D10409F49EC1362F3770FB0142
:102D200077FD379623E0F595E7952A95E1F72E2F65
:102D300077FF04C0332311F02FEF2E0FB7FF05C02C
:102D4000662777276A1B7B0B02C060E070E0403883
:102D5000510524F050E85A1B952E01C0912E961A69
:102D6000A22E022E000CBB082F3F1CF48A2D80954A
:102D700001C080E041E0592F577009F440E096957A
:102D800096959695940FA90EB11C49E0A416B1042E
:102D900014F098E0921B981B280F40E82403A00D24
:102DA000B11D1124A60FB71F819F600D711D112445
:102DB0003601660E771E41E050E06A01032E02C024
:102DC000CC0CDD1C0A94E2F7033009F400C1A0F436
:102DD000013009F4B1C0023009F03DC18FEF8C9D84
:102DE000B0018D9D700D1124609570957C836B836F
:102DF0008C80492F420F29C00A3F31F00B3F09F068
:102E00002AC1492F420F84C0492F420F4FC0F301FE
:102E1000E00FF11FE491EC9D5001ED9DB00C1124E9
:102E2000BA82A98227FD05C0FC0150815623A52A3C
:102E3000A082311113C00F5F1F4F0196091538F39F
:102E40002F5F6E0C7F1CA058BF4F241709F403C1DD
:102E5000CD0180539D4F00E010E0F0CF27305CF7AC
:102E6000FC01E058FF4F50815821BA805B29508304
:102E7000E2CFF301E60FF71FE491EC9D8001ED9D99
:102E8000100D11241A83098327FD04C0FC01508111
:102E9000052B0083311113C06F5F7F4F01966915B9
:102EA00040F32F5F6E0C7F1CA058BF4F241709F40E
:102EB000D2C0CD0180539D4F60E070E0F0CF27304D
:102EC0005CF7FC01E058FF4F10815A81512B508371
:102ED000E3CFF301E00FF11FE491EC9DC001ED9D04
:102EE000900D11249A83898327FD05C08095FB01ED
:102EF000908189238083311114C00F5F1F4F6F5F52
:102F00007F4F091530F32F5F6E0C7F1CA058BF4F09
:102F1000241709F4A0C0BD0160537D4F00E010E00C
:102F2000F0CF273054F7FB01E058FF4F8A8180959E
:102F3000908189238083E1CF892E820EA301CB016A
:102F400086199709281509F486C0BD0160537D4F85
:102F50005B0100E010E00915A0F5F801E80FF91F8A
:102F6000E40FF51FE491EC9DB001ED9D700D11246F
:102F7000609570957C836B83FA01E00FF11FE491FB
:102F8000EC9D3001ED9D700C11247A82698227FD41
:102F900005C0F50170816723662A6082332359F0EA
:102FA00027304CF4F501E058FF4F70816C816723A6
:102FB0007A81672B60830F5F1F4FFFEFAF1ABF0A45
:102FC000CACF2F5F4E0D5F1DA058BF4FBBCFA92C9E
:102FD000B12CF301E60FF71FA053BD4F60E870E07E
:102FE0006A197B09EA18FB088701000F111F592D88
:102FF000492F792CE32ECF93DF93ED01EF96EF96D7
:1030000022968590A590EE2059F08C9C4001AC9CB6
:10301000500127302CF4F880B094FB20F928F99265
:1030200022233AF0FC90A094FA20F828FD920C9408
:103030001A1811965A9529F74A9551F0572D23954C
:103040001124E00FF11DA60FB11DC60FD11DD9CF60
:10305000DF91CF9111240F900F900F900F90DF917F
:10306000CF911F910F91FF90EF90DF90CF90BF9085
:10307000AF909F908F907F906F90089520E030E008
:10308000D901A053BD4F40E050E0FA01E20FF31F19
:10309000E80FF91FE4916C91E62BED934F5F5F4FC2
:1030A0004038510591F720583F4F211544E034072F
:1030B00039F708955F926F927F928F929F92AF92AD
:1030C000BF92CF92DF92EF92FF920F931F93CF9315
:1030D000DF93EC018B017A01A901461B570B57FFC7
:1030E00003C0519541955109C7018C1B9D0B97FF5A
:1030F00003C09195819591095524539484179507A0
:1031000014F0512C0AC09E2D8F2D7901292F382FB4
:103110009C2F8D2FE801092F182FEC16FD0654F473
:10312000902F812F8901292F382F9C2F8D2FE70178
:10313000E92EF82E37016C1A7D0A5901A01AB10A3E
:10314000B7FE03C0B194A194B108630177FE03C038
:103150008FEFC81AD80AD594C7940217130714F032
:103160008FEF01C081E0882E880F9908EC16FD06CC
:10317000B4F021E0552019F0AE01B80102C0A80159
:10318000BE018BE297E00E946C1CCA18DB08D7FED8
:1031900004C0080D191DC60CD71C2196E7CFDF917E
:1031A000CF911F910F91FF90EF90DF90CF90BF9044
:1031B000AF909F908F907F906F905F9008950F9346
:1031C0001F93CF93DF938C01C0E0D0E0F801EC0FA8
:1031D000FD1F6491662371F0E0911D07F0911E07B9
:1031E0000190F081E02D8DE197E00995892B11F098
:1031F0002196ECCFCE01DF91CF911F910F910895D1
:103200008F929F92AF92BF92CF92DF92EF92FF92F6
:103210000F93CF93DF936B01EC014C01840E911C53
:103220005B01A20EB11CC815D905ECF47601D7FEDE
:1032300010C0E12CF12C0DC0E816F90694F4202FF3
:10324000A701BE018BE297E00E946C1C2FEFE21AEF
:10325000F20AC50121E4A216B10474F380E490E0FF
:10326000EBCF2196E0CFDF91CF910F91FF90EF90C0
:10327000DF90CF90BF90AF909F908F900895E0ED3A
:10328000F2E0A0E0B8E000800EBC8111012C1197A3
:10329000A0FDFDCF0192B9F70DB4089580914207CA
:1032A00081110DC082E080933E0784E080933F0748
:1032B000109241071092400781E0809342078EE30D
:1032C00097E00895CF92DF92EF92FF920F931F93B2
:1032D000CF93DF936C017A018B01C0E0D0E0CE1573
:1032E000DF0589F0D8016D918D01D601ED91FC913A
:1032F0000190F081E02DC6010995892B11F47E0122
:1033000002C02196ECCFC701DF91CF911F910F91A1
:10331000FF90EF90DF90CF9008958091C102E091EF
:10332000BF02F091C002882349F0CF01029690932A
:10333000C0028093BF02859194910895CF010296B7
:103340009093C0028093BF02808191810895809103
:10335000B80208950895089580E090E008950E94CD
:103360003032CF93DF9300D000D0CDB7DEB76115F8
:1033700071058105910579F09B01AC0169833A8360
:103380004B835C830E946F3129813A814B815C8140
:103390000E94933103C060E070E0CB010F900F906A
:1033A0000F900F90DF91CF910895CF92DF92EF921F
:1033B000FF920F931F93621773078407950784F496
:1033C00089019A016B017C01C901B8016C197D0961
:1033D0008E099F090E94B1196C0D7D1D8E1D9F1DC8
:1033E0001F910F91FF90EF90DF90CF9008953FB71E
:1033F000F8948091C8079091C907A091CA07B0912D
:10340000CB0726B5A89B05C02F3F19F00196A11D3B
:10341000B11D3FBFBA2FA92F982F8827820F911D6A
:10342000A11DB11DBC01CD0142E0660F771F881FB1
:10343000991F4A95D1F708958F929F92AF92BF92AC
:10344000CF92DF92EF92FF926B017C010E94F719FD
:103450004B015C01C114D104E104F104F1F00E94BC
:10346000F719DC01CB0188199909AA09BB09883E23
:103470009340A105B10570F321E0C21AD108E1081B
:10348000F10888EE880E83E0981EA11CB11CC114BF
:10349000D104E104F10419F7DDCFFF90EF90DF9044
:1034A000CF90BF90AF909F908F9008951F920F92F2
:1034B0000FB60F9211242F933F938F939F93AF9347
:1034C000BF938091B9029091BA02A091BB02B091D2
:1034D000BC023091C70723E0230F2D3720F401965B
:1034E000A11DB11D05C026E8230F0296A11DB11D27
:1034F0002093C7078093B9029093BA02A093BB02AE
:10350000B093BC028091C8079091C907A091CA07E7
:10351000B091CB070196A11DB11D8093C807909370
:10352000C907A093CA07B093CB07BF91AF919F91F2
:103530008F913F912F910F900FBE0F901F90189574
:10354000CF92DF92EF92FF920F931F93CF93DF936F
:103550000E948D19811520E8920761F48091710015
:103560008D7F809371001092910046984798109239
:10357000C0078BC021E02093C007813020E892076C
:1035800051F48091BD029091BE029093C00280934D
:10359000BF020E948D1997FD05C02091BF0722230D
:1035A00009F43FC02091BE0721113BC021E02093C8
:1035B000C107EC01DF77209769F481E08093C207AF
:1035C00046983FE9C32E3FE0D32EE12CF12CCAEF01
:1035D000D0E014C08E0120E030E060E472E48FE0BF
:1035E00090E0A90198010E94933169017A0181E07C
:1035F000C81AD108E108F1081092C207E091DE066E
:10360000F091DF060995811103C081E08093C20724
:103610008091C1078823B9F18091C207811133C01D
:1036200003C01092C107C5CF46992DC0479A0E948A
:103630008D19009771F09C01DE010E94E731DC01D9
:10364000CB0129E0B595A795979587952A95D1F750
:1036500003C08FEF9FEFDC01109290002AE02093CF
:103660009100D0929900C09298008093C3079093E4
:10367000C407A093C507B093C6078091710082600C
:103680008093710002C04798D2CFDF91CF911F91F4
:103690000F91FF90EF90DF90CF9008951F920F92BF
:1036A0000FB60F9211242F933F934F935F936F9315
:1036B0007F938F939F93AF93BF93EF93FF938091EB
:1036C000C3079091C407A091C507B091C607892B85
:1036D0008A2B8B2B81F18091C20781110BC098B18D
:1036E00080E4892788B98091C107882319F088B1BF
:1036F000805888B98091C3079091C407A091C507ED
:10370000B091C607181619061A061B06B4F4809164
:10371000C3079091C407A091C507B091C607019750
:10372000A109B1098093C3079093C407A093C5076B
:10373000B093C60702C00E94A01AFF91EF91BF91FB
:10374000AF919F918F917F916F915F914F913F9139
:103750002F910F900FBE0F901F9018950F9303E0BD
:103760000E942C160F9108950F930AEF0E942C16B9
:103770000F9108950F930BEF0E942C160F9108954F
:10378000CF93DF93FC016A3039F48581848396817D
:103790008185890F868345C084816E3719F48D5FDA
:1037A00084833FC0262FEF0166816F5F2A334CF47C
:1037B0002033C4F42D32C1F02E3281F0213221F5B4
:1037C00015C02B352CF421345CF42F3319F11CC0B7
:1037D0009FE9920F9A31C0F4275409C02FE307C024
:1037E000215405C02C5F03C021E401C02EE33F81BA
:1037F000062E000C770B082E000C990B313061F46B
:1038000044EC51E20E94B41B88858C5F9C81890F37
:103810008C8307C020E4EBCF44EC51E20E94BA1B3A
:10382000F3CF81E090E0DF91CF9108950F9302E014
:103830000E942C160F910895BC0180E090E00C943A
:103840001C1A8FB18095807F669B88601C9B84606A
:103850000895FC01840F911D18161906E4F5E0384F
:10386000F105CCF5F7FF02C0E0E0F0E0813891050A
:1038700014F080E890E0382F3E1BAB0177FF02C0C8
:10388000495F5F4F83E0559547958A95E1F75695D7
:10389000542F442757954795E40FF51FE053FD4FEC
:1038A0006770772781E090E001C0880F6A95EAF79A
:1038B000482F222349F0213071F4315020F08081CB
:1038C000842B8193FACF08958095315020F0908118
:1038D00098239193FACF089560387105D0F440345D
:1038E0005105B8F4EEECF2E280E1849FD001A078BB
:1038F0001124A60F4770E40FF11D8491A053BD4F12
:10390000222319F06C91862B03C080956C9186233D
:103910008C9308952F923F924F925F926F927F9275
:103920008F929F92AF92BF92CF92DF92EF92FF92CF
:103930000F931F93CF93DF93CDB7DEB729970FB6C1
:10394000F894DEBF0FBECDBFFC016A3069F4258953
:103950008189928938E0239F800D911D1124928BDB
:10396000818B108A1786AAC06D3009F4A7C0998789
:103970008887F5883488238861887288078510894C
:1039800000381105C4F0A885B98555962C91559736
:10399000422F50E01F968D919C915097B6E02B9F3F
:1039A000800D911D1124E885F985908B87872689E4
:1039B00021116EC083C0F0E46F16710424F7C801B2
:1039C00025E0F29E800D911D112418161906DCF6D3
:1039D0008F2D90E09C838B83C301A8E0FA9E800D1D
:1039E000911D11241816190674F6B5E06B9FB001ED
:1039F0001124FB01EA52FD4DFA83E98330E088850A
:103A0000998504969E838D83E981FA81E49035300F
:103A100009F4E12C430188E0482EE0FC02C0532C5D
:103A200001C0522C51100BC0321009C0E6944A94C8
:103A30008B819C81880E991E4110EFCF1BC06801BD
:103A40008C2D801B8F1590F754018A2D88198F15A6
:103A500068F4252DA501B6018D819E813F830E94CA
:103A60006C1C9FEFA91AB90A3F81EFCFAFEFCA1ABA
:103A7000DA0AE6CF3F5FEB81FC810E0F1F1F8981C1
:103A80009A8101969A838983363009F0BDCF7BCF26
:103A90006AEF64039001659F300D112420583F4F59
:103AA000281739075CF4A885B985ED91FC91119729
:103AB0000190F081E02D6AE0CD01099581E090E070
:103AC00029960FB6F894DEBF0FBECDBFDF91CF9120
:103AD0001F910F91FF90EF90DF90CF90BF90AF902C
:103AE0009F908F907F906F905F904F903F902F901E
:103AF0000895EF92FF920F931F93CF93DF9300D01F
:103B000000D0CDB7DEB78B0197E0899F70011124FB
:103B1000C7018E559E4F0E947D31F8018083C701F9
:103B20008D559E4F0E947D31F8018183C7018C55D0
:103B30009E4F0E947D31F80182831C821B82BE0150
:103B40006D5F7F4FC7018B559E4F0E9478158B810B
:103B50009C81F801948383831A821982BE016F5F6E
:103B60007F4FC70189559E4F0E94781589819A81A0
:103B7000F801968385830F900F900F900F90DF913F
:103B8000CF911F910F91FF90EF900895FC017383E7
:103B9000628383818E5C873918F0138212821682C9
:103BA0000895EF92FF920F931F93CF93DF931F928D
:103BB000CDB7DEB77C01FC0100811181C8016983AA
:103BC0000E947D316981681719F0C8010E94853112
:103BD000C7010F90DF91CF911F910F91FF90EF9050
:103BE0000895EF92FF920F931F93CF93DF9300D02E
:103BF000CDB7DEB78C017B01FB0160819A8389839D
:103C0000CE0101960E94D11DF70161810F5F1F4F08
:103C10001A830983CE0101960E94D11DC7010F901E
:103C20000F90DF91CF911F910F91FF90EF9008952A
:103C3000CF93DF9300D0CDB7DEB79A838983CE01CF
:103C400001960E94D11D0F900F90DF91CF910895A2
:103C50000F931F93CF93DF9300D000D0CDB7DEB783
:103C6000082F80EA91E00E947D31182F81EA91E0CF
:103C70000E947D31011104C0113411F48235A1F18B
:103C80001C821B821A82198261E480EA91E00E9400
:103C9000181E62E581EA91E00E94181E02EA11E016
:103CA00060E0C8010E94181E60E0C80101960E94F1
:103CB000181E60E0C80102960E94181E1C821B821A
:103CC000BE016D5F7F4FC80103960E94F11DBE01CA
:103CD0006F5F7F4FC80105960E94F11D095F1F4F5E
:103CE000053C81E01807E1F60F900F900F900F90C0
:103CF000DF91CF911F910F910895FC0184859585E7
:103D000097FD0BC09FB7F89482E08093E900809103
:103D1000F2009FBF90E0019608959FB7F89482E06B
:103D20008093E9008091F2009FBF90E00895409158
:103D3000D0075091D1072091CE073091CF0742177D
:103D40005307B4F49091E8009570E1F39091E80086
:103D500092FD19C08093F1008091D0079091D10716
:103D600001968F739927892B19F48EEF8093E800C1
:103D70008091D0079091D10701969093D1078093BD
:103D8000D00781E0089580E00895CF92DF92EF920E
:103D9000FF920F931F93CF93DF931F92CDB7DEB7A0
:103DA000182F062FE42E862F880F8E5F99830E948E
:103DB000971E83E00E94971EF12EC12E9981D92E65
:103DC0008C2D8F19801798F4F601E7FE02C08491BC
:103DD00001C080810E94971E182F80E00E94971ECC
:103DE0008123FFEFCF1ADF0A8111EACF01C081E002
:103DF0000F90DF91CF911F910F91FF90EF90DF9087
:103E0000CF900895DF92EF92FF920F931F93CF937D
:103E1000DF93D82E8A017B01E40EF51EEB01CE154F
:103E2000DF0571F0D7FE03C0FE01849101C08881D7
:103E30000E94971E21968111F2CF8FEF9FEF01C054
:103E4000C801DF91CF911F910F91FF90EF90DF900C
:103E50000895615030F02091F100FC01208301961B
:103E6000F8CF289884E68093CE0208950F931F938D
:103E7000CF93DF931F92CDB7DEB782E0898342E410
:103E800050E066ED77E280E80E94021F0E944E1922
:103E9000DC0112960D911C9113970115110569F023
:103EA000D801ED91FC910280F381E02DBE016F5F9E
:103EB0007F4FC801099597FF07C089810F90DF9157
:103EC000CF911F910F910895F80100851185E5CFDD
:103ED0001F920F920FB60F9211248F939F93809190
:103EE000E1009091E100937F9093E10083FF0FC088
:103EF0001092E90091E09093EB001092EC0092E3B5
:103F00009093ED001092CF0298E09093F00082FF22
:103F100020C093E09093E9009091F200992319F06A
:103F20009AE39093E8009091CC02992339F0909114
:103F3000CC0291509093CC02992389F19091CE02BA
:103F4000992339F09091CE0291509093CE0299230B
:103F500041F184FF10C08091E2008E7E81608093E9
:103F6000E2008091E1008F7E8093E1008091CD029C
:103F70008E7E806111C080FF16C08091E2008E7E2F
:103F800080618093E2008091E1008E7E8093E10069
:103F90008091CD028E7E81608093CD0204C05D9AB7
:103FA000CDCF289AD6CF9F918F910F900FBE0F90B3
:103FB0001F9018951F920F920FB60F921124CF9257
:103FC000DF92EF92FF920F931F932F933F934F93A4
:103FD0005F936F937F938F939F93AF93BF93EF9371
:103FE000FF93CF93DF93CDB7DEB76C97DEBFCDBF26
:103FF0001092E9008091E80083FFEDC168E0CE01F6
:1040000045960E94291F82EF8093E8008D8987FFE3
:1040100005C09091E80090FFFCCF03C09EEF909305
:10402000E800982F907609F0C6C09E892F89188DD8
:1040300091110CC0803829F48091CD078093F10054
:1040400002C01092F1001092F10048C1422F50E0DE
:10405000512B913051F4811141C14130510509F08A
:104060003DC18091CD078D7F0BC0933061F48111EC
:1040700035C14130510509F031C18091CD078260D1
:104080008093CD072BC1953041F48091E80080FFEB
:10409000FCCF20682093E30021C1963009F05FC077
:1040A000EB8CFC8C1092E9001092D1071092D00793
:1040B000123091F51092CF071092CE070E94361F52
:1040C00099E0BE016F5F7F4FDB01E92F1D92EA95FA
:1040D000E9F799831A8391E09E8390EA98879AEF93
:1040E00099872091D0073091D107275F3F4F3C83BC
:1040F0002B838D831092E9001092D1071092D00784
:10410000F092CF07E092CE0749E050E080E00E94B5
:10411000021F0E94361FE2C0F092CF07E092CE0746
:104120000E944E19DC011296ED90FC901397E11459
:10413000F10409F4C0C0D701ED91FC910480F58130
:10414000E02DBE016B5E7F4FC7010995009719F006
:104150000CF0C4C0C7C0F701E084F184E8CF973009
:1041600009F4C0C0983021F481E08093F100B6C01A
:10417000993009F0B3C0837009F0B4C0E1EBF2E00C
:1041800081E021E036E39081992361F08093E9009A
:104190002093EB0091919093EC003093ED008F5FB2
:1041A000873089F78EE78093EA001092EA008F89C2
:1041B0008093CF0293C08B8D9C8D1092E90010925A
:1041C000D1071092D0079093CF078093CE07898DA7
:1041D000811156C08E899D89913A59F4813209F036
:1041E00081C047E050E062E071E080E00E94021F81
:1041F00075C0913209F076C0833289F4888D90E0E1
:10420000982F88272F89822BA0E0B0E080931D0192
:1042100090931E01A0931F01B09320015FC08032D4
:1042200069F48091E80082FFFCCF67E082E091E0D2
:104230000E94291F8BEF8093E80006C0823209F0AC
:104240004DC08F89809309018091CC07882319F094
:10425000EEEFFAE002C0E0E0F8E080910201909118
:104260000301A0910401B0910501803B9440A10598
:10427000B10509F07BC08091090180FF93C076C031
:104280000E944E19DC0112960D911C911397011595
:10429000110541F1D801ED91FC910190F081E02DE3
:1042A000BE016B5E7F4FC8010995811117C0F801EF
:1042B00000851185ECCF113009F44EC0133091F414
:1042C0008F89882309F445C0823081F440E860E199
:1042D0008AE398E20E94C51E882321F08EEF809326
:1042E000E80079C081E28093EB0075C0813029F449
:1042F00040E86BE08EE298E2EDCF833099F70E94C0
:104300004E19DC011296ED90FC9013978E010F5F11
:104310001F4F6801E114F10479F0D701ED91FC9190
:104320000680F781E02DB801C7010995080F111D1E
:10433000F701E084F184EECFD8011C92F6010190E0
:104340000020E9F73197BF016C197D0940E0C601F3
:10435000C1CF68E178E202C06CE178E261157105D5
:1043600009F2FB01449150E080E840CF0FB6F89489
:10437000A895809160008861809360001092600031
:104380000FBEA895EE3F2AE0F20739F08091FE0AB1
:104390009091FF0A91838083A1CF1092FF0A10921F
:1043A000FE0A9CCFEE3F8AE0F80731F080819181D0
:1043B0009093FF0A8093FE0A87E797E791838083B3
:1043C0009BE088E10FB6F894A895809360000FBE3B
:1043D0009093600083CF6C960FB6F894DEBF0FBE4B
:1043E000CDBFDF91CF91FF91EF91BF91AF919F91A1
:1043F0008F917F916F915F914F913F912F911F917D
:104400000F91FF90EF90DF90CF900F900FBE0F9025
:104410001F901895CF93DF93CDB7DEB7AE970FB649
:10442000F894DEBF0FBECDBF789484B5826084BDA2
:1044300084B5816084BD85B5826085BD85B58160A8
:1044400085BD80916E00816080936E001092810026
:1044500080918100826080938100809181008160E1
:1044600080938100809180008160809380008091A2
:10447000910082608093910080919100816080938F
:104480009100809190008160809390008091C100A4
:1044900084608093C1008091C10082608093C100DC
:1044A0008091C10081608093C1008091C3008160D0
:1044B0008093C3008091C00082608093C00080918F
:1044C000C20081608093C20080917A0084608093F2
:1044D0007A0080917A00826080937A0080917A00DD
:1044E000816080937A0080917A00806880937A005E
:1044F0001092CF021092CD071092CD028091D7007A
:1045000081608093D70080EA8093D80089B580616C
:1045100089BD89B5826089BD09B400FEFDCF61E027
:1045200070E080E090E00E941C1A8091D8008F7C9F
:1045300080618093D8008091E000807F8093E000CC
:104540008091E1008E7E8093E1008DE08093E20017
:10455000559A209AEEEFFFE7859194918B3F9C4D01
:1045600019F481E08093CC0781EC80937C0085B1C5
:10457000806F85B984B1877E84B984B1876E84B930
:104580005E9A5F988AB1806D8AB9769A6E9881B387
:10459000806F81BB899880B38D7080BB80E58CBDB6
:1045A00081E08DBD85E090E00E941C1C5F9A85E053
:1045B00090E00E941C1C5E985C98E4E0F5E08DE0C1
:1045C0008E0F94919EBD00000DB407FEFDCF319675
:1045D0008E13F7CF5C9A81E8809364008091650028
:1045E0008160809365000E94211C87FF15C05C9844
:1045F00085EA8EBD00000DB407FEFDCF5C9A2E98B3
:104600002F982D988091640080628093640081E0EF
:1046100083BF889513BEFCCF02E010E00E94211CEE
:1046200082FF40C02D980E94211C84788438C1F0FC
:104630000E94211C8471843181F52D9A88EC90E0D0
:104640000E941C1C2E981A83098360E0CE010196FB
:104650000E94D11D84EF91E00E941C1C2E9A18C06C
:104660002D9A88EC90E00E941C1C2F981A830983D5
:104670006FEFCE0101960E94D11D84EF91E00E9460
:104680001C1C2F9A0E94211C84788438D9F3D0CF27
:104690000E94211C84718431D9F388EC90E00E943F
:1046A0001C1CBCCF2D9A82E090E00E947D318823B3
:1046B00031F03E9A3F9A81E08093B80204C0109294
:1046C000B8023E983F98809164008E7F809364008A
:1046D00080917A00806480937A0080917A0086FDD0
:1046E000FCCF00917800109179000E94F71920E02A
:1046F00030E0980111270027600F711F821F931F60
:10470000611571058105910511F00E947431809148
:1047100064008160809364008DE08093320780E0C4
:1047200097E29093FF068093FE0680E00E94281E89
:104730001092CA02AE014F5F5F4F1A01BE01685F5F
:104740007F4F7B8B6A8B1AE0412E512C82EF96E0D3
:1047500075E0780F7CA785E0840F8DA78FB7F8945C
:104760004091B9025091BA026091BB027091BC02B3
:104770008FBF80913307942F981B892F9091340716
:10478000992329F08093350710923407A2C09091A5
:104790003207891748F48F5F891708F09AC081E0C3
:1047A00083BF889513BE95C081E080933407409302
:1047B000330720912E0730912F072F5F3F4F309303
:1047C0002F0720932E0780913507981710F45D98D6
:1047D00088C05D9A86C084EC9DE10E943E1880915D
:1047E000CA0287FD26C000E010E0B0E8EB2EF12CF5
:1047F00020E04091CA02B80180E090E00E94291CAC
:104800008091CA02B8016F5F7F4F20E0482FD70127
:10481000A81BB109CD010E94291C0E5F1F4F003457
:10482000110531F78091CA0287FD03C08F5F809325
:10483000CA028091CA0287FF02C00C94F22F8091B5
:10484000CB02853009F066C080910C0700911A07F1
:1048500040ED52E090E0880F991F20910D07820FE4
:10486000911D34E0880F991F3A95E1F7BC01685F0C
:104870007F4FDA01033009F445C0E0E0F0E0E80FD3
:10488000F91FEF5EFA4F1491FC013896033009F4DA
:104890003CC020E030E0E20FF31FEF5EFA4FE491FE
:1048A00020E03C913EBD20FF33C03E2F3D930000F1
:1048B000000000000000000000002F5F203889F792
:1048C00040585F4F01968617970799F60DB407FE7B
:1048D000FDCF80E090E0892B09F440CF0E940000DA
:1048E0003DCF80913007809331070E94211C809337
:1048F0003007E091CB028E2F90E08A30910508F0CE
:104900009ECF0CC0E0EAF0E0BACF20EA30E0C3CF9F
:10491000312FCCCF81E00E943F19DBCFFC01EA5A56
:10492000FF4F0C942A328DE08093320782E080930F
:10493000CB0280E880930A0184EC99E10E943E1842
:104940008AE4809322078093210785E080932307E0
:104950008091C9029091C802981789F1813099F429
:10496000909171009D7F909371008093C1028CEEB5
:1049700098E19093C0028093BF029093BE0280930F
:10498000BD020E94A01A8091C9028230A1F48091D8
:1049900071008D7F8093710081E08093C1028AE66F
:1049A00098E19093C0028093BF029093BE028093DF
:1049B000BD020E94A01A8091C9028093C802809112
:1049C000C9028130A9F078F0823001F586EA99E1D8
:1049D0000E94DF182CE130E041E750E069E170E02F
:1049E00081E790E011C08AEB99E10E94DF180EC0C8
:1049F00080EB99E10E94DF182CE130E047E650E0BF
:104A000069E170E087E690E00E945A1880910A01FF
:104A1000882349F00E94FB1580910A01882319F030
:104A2000815080930A0180E20E942116882321F0A0
:104A30008091C90281113EC580E40E94211688231D
:104A400029F08091C902823008F46BC588E00E9489
:104A50002116882319F084E08093CB0284E00E9421
:104A60002116882309F4EBCE83E00C94F32F20E089
:104A70004AEC57E16DE070E088E190E00E94161C7E
:104A80008091C7028F5F8093C702863480F4282FFD
:104A900030E0F901EE0FFF1FE351FE4F40815181DD
:104AA000F901E955FE4F10818C3330F003C010E05E
:104AB00040E050E01092C70220E066E270E086E23B
:104AC00090E00E94161C20E04EEA57E166E270E09A
:104AD0008CE490E00E94161C212F40E757E166E22B
:104AE00070E08CE490E00E94B41B20E048E557E1C0
:104AF00062E370E080E290E00E94161C20E047E351
:104B000057E162E370E084E490E00E94161C88E0C4
:104B10000E94211681113CC584E00E94211681115A
:104B200037C58DCE84E18093320785E08093CB0238
:104B300010920107109200078AE28093FD061092FE
:104B4000020782E390E09093040780930307909319
:104B5000060780930507809101078DA38C8BE82FB2
:104B6000880FFF0BF7FF03C0F195E195F1090E2EB9
:104B7000000CFF0BE35AF24FB491BE8F8091C60236
:104B8000811109C0EC89E23030F4E13041F50E9436
:104B9000211C83FF24C08091C5025E8D851768F0BB
:104BA00080910C078F5F853008F0F4C465E00E94A7
:104BB000F63190930C071092C5028091C5028F5F69
:104BC0008093C5026E8D660F660F70E080912E0790
:104BD00090912F070E940232892B09F4EDC4809135
:104BE0002E0790912F0763E070E00E940232892B1C
:104BF00071F0F0910207FF8F27E137E1388F2F8B9B
:104C00004EE057E05BA34AA300E010E02CC1EC8823
:104C1000E694F12CFE2CEE24E0EECE2EE6E0DE2E25
:104C2000D6010D911D916D01F8018681882309F44B
:104C30005EC042815381848195819701281B390B85
:104C4000C901840F951F22E3290F273918F4938394
:104C5000828303C0138212821682892F990F990BC7
:104C6000982F88272091FE063091FF0642175307A0
:104C700014F00C94F72F821793075CF080910507CE
:104C800090910607009729F001979093060780936B
:104C90000507F8018781811117C063E070E080E0AB
:104CA00090E00E94B119DC01CB010197A109B10983
:104CB000F80180876FE170E080E090E00E94B11918
:104CC000D80117966C9313C0F80180858F3F19F0B7
:104CD000813039F00CC081818C3D4CF08150818352
:104CE00006C0F8018181853214F48F5F8183F8EE6C
:104CF000CF16F6E0DF0609F093CF7BCFE7E0F0E0D8
:104D0000E21BF10927FDF395E15DF84EE49197FD73
:104D1000E1959F8D9E0F282F082E000C330B37FF37
:104D200003C0319521953109E7E0F0E0E21BF1097C
:104D300027FDF395E15DF84EE49187FDE1954F8DF8
:104D40004E0FF801E15EF84E25913491E92F990F4D
:104D5000FF0BFA8FE98FEF89F88D8491885FB80196
:104D60006E5F7F4F7E8B6D8BFB01E15EF84E659130
:104D70007491A42F440FBB0BBC8FAB8FEF89F88DC0
:104D80003196F88FEF8B9491F8E0EF2EE90EF80151
:104D9000E95FF84EA590B490ED89FE89E95FF84E81
:104DA000C590D490498D5A8D240F351F28A7A40E85
:104DB000B51EA9A66E2C681A062C000C7708762C56
:104DC0006624072C000C88089908A82FB0E0B9A326
:104DD000A8A3EB8DFC8D6E0F7F1F621B062E000CAF
:104DE000770B762F6627CB01770FAA0BBB0B6627B5
:104DF000782F892F9A2FA40193010E9493313BA70A
:104E00002AA72B8D3C8DC20ED31E6C2D6A19062E3F
:104E1000000C770B762F6627CB01770FAA0BBB0B05
:104E20006627782F892F9A2FA40193010E9493312E
:104E30003FA32EA3C8A0D9A0812C912CA12CB12CCA
:104E4000F12C892D3B2DEC14FD0424F040E4C41614
:104E5000D104F4F05CA151114BC00D891E890E30B4
:104E6000110509F44CC04F8927E137E1421B4CA3DF
:104E7000AAA1BBA19D91BBA3AAA38C91292F092E06
:104E8000000C330B37FF3ACF31952195310936CFDE
:104E900068A5360F79A5780F7D8F632E032E000C41
:104EA000770821E042E0B601C3013EA70E94291C19
:104EB0004D8D43503EA5431B20E0B601C301029631
:104EC0000E94291C3D8D832F330F990B21E042E076
:104ED000B60101970E94291C4FEFC41AD40A6AA593
:104EE0007BA5A60EB71E8EA19FA1880E991EA9CFE5
:104EF00090910D078CA181708913AFCF6FC3E091A2
:104F00001A07E43028F4F0E0EB5DFE4FE08101C0C9
:104F1000E0E0F0E0EC51F94E249100E040E860E080
:104F200070E080E090E00E940019E0911A07E43000
:104F300028F4F0E0EB5DFE4F208101C020E042EE5E
:104F400053E160E070E080910A0790910B070E94A6
:104F5000B41BE0911A07E43028F4F0E0EB5DFE4F5B
:104F6000208101C020E080910A0790910B0742EE5A
:104F700053E160E070E080589F4F0E94B41B91E0C5
:104F8000892FE82FF0E0DF01A152B94F52963C91F2
:104F900052978F010052194FF8012289422F50E099
:104FA000440F551F4851594FFA0160817181432FB9
:104FB00050E0440F551F4851594FFA01408151812B
:104FC000FB0162817381FA014281538146175707C1
:104FD0000CF03BC341C387E08093CB0280E8809311
:104FE0000A0120E047E65BE060E170E081E090E0EC
:104FF0000E94161C80910A01882349F00E94FB152B
:1050000080910A01882319F0815080930A0188E079
:105010000E942116882309F412CC88E08093CB02E9
:105020001092C7020CCC8FEF8093F7061092F8060F
:105030001092F9061092FA061092FB06809105076D
:10504000909106072091070730910807398B288B2C
:105050009F878E8700E010E0B12C1A8219826801C8
:105060005BE5C51A5EEFD50AB101C6010E9478154D
:1050700029813A81888999892817390740F4AB2C0E
:1050800073ECE72EFF24F394E4E09E2E09C0B39462
:10509000095F1F4F65E0B612E0CFAA24AA944FC063
:1050A000B91468F59A94B101892D0E94791D69811E
:1050B000C70105970E94181E6A81C70104970E94C4
:1050C000181E6B81C70103970E94181E8C819D8159
:1050D00099878887BE01685F7F4FC70102970E944A
:1050E000F11D8E819F8199878887BE01685F7F4F00
:1050F000C7010E94F11D77E0E71AF108D1CF60E007
:10510000C8018E559E4F0E94181E60E0C8018D5543
:105110009E4F0E94181E60E0C8018C559E4F0E9451
:10512000181EBE01605F7F4FC6010E94F11DBE01C7
:10513000625F7F4FC80189559E4F0E94F11D1FEF8E
:10514000B101812F0E94791D1F5F1430C9F7A09211
:10515000F70689E08093CB0280E880930A0120E083
:1051600045E657E060E070E080E090E00E94161CA9
:1051700007E110E0F12C66E0E62E9A889E0CB10162
:105180008F2D0E94791D29814BE556E0B8018CE1F5
:1051900090E00E94161C2A814BE556E0B80182E29D
:1051A00090E00E94161C2B814BE556E0B80188E286
:1051B00090E00E94161CAA89BB89EE2D1D92EA95EB
:1051C000E9F78C819D819E01285F3F4F5901F901CC
:1051D000B2010E9402328193CB019E12F9CF5DE4AD
:1051E000C52ED12CD5012D915D012C5C4BE556E0EF
:1051F000B801C6010E94161CB5E0CB1AD108EFE237
:10520000CE16D10479F78E819F81B2010E940232BD
:105210008887CB01B2010E9402328987CB01B2019B
:105220000E9402328A879E01285F3F4F590143E660
:10523000C42ED12CD5012D915D012C5C4BE556E09F
:10524000B801C6010E94161CB5E0CB1AD108E4E5EE
:10525000CE16D10479F7F394085F1F4FF5E0FF12E3
:105260008ECF1091F7061F3F09F41BC18091C30236
:105270008F5F8093C3028832E8F428E0129FB00168
:105280001124695E7F4F20E046E556E086E190E01C
:105290000E94161C6091F70638E0639FB00111244C
:1052A000695E7F4F20E041E556E089E690E00E948C
:1052B000161C04C0813510F01092C3028091F806CC
:1052C0006091F70681111EC048E0649FB00111246F
:1052D0006A5E7F4F01E028E046E08BE190E00E94AB
:1052E00000196091F70658E0659FB0011124695ECE
:1052F0007F4F2091F9064BE556E08CE190E00E944B
:10530000BA1B0EC088E0689FB0011124695E7F4F10
:105310002091F9064BE556E08CE190E00E94161CC6
:105320008091F8066091F7068130F1F498E0699F6A
:10533000B00111246A5E7F4F01E028E046E081E27F
:1053400090E00E9400196091F706A8E06A9FB00102
:105350001124695E7F4F2091FA064BE556E082E208
:1053600090E00E94BA1B0EC0B8E06B9FB001112400
:10537000695E7F4F2091FA064BE556E082E290E0AD
:105380000E94161C8091F8066091F7068230F1F4B5
:10539000E8E06E9FB00111246A5E7F4F01E028E0D3
:1053A00046E087E290E00E9400196091F706F8E07D
:1053B0006F9FB0011124695E7F4F2091FB064BE582
:1053C00056E088E290E00E94BA1B0EC028E0629F7F
:1053D000B0011124695E7F4F2091FB064BE556E03A
:1053E00088E290E00E94161C1091F80680E80E9466
:1053F0002116882359F0E12FF0E0E950F94F82811E
:10540000833211F4128202C08F5F828380E10E9496
:105410002116882359F0E12FF0E0E950F94F8281FD
:10542000811102C083E201C08150828380E20E9428
:105430002116882329F0112319F011501093F80632
:1054400080E40E942116882339F08091F80682308A
:1054500018F48F5F8093F80688E00E942116882355
:1054600009F4EDC90091F70637E0039F800111248C
:105470006091F906C8018E559E4F0E94181E6091DA
:10548000FA06C8018D559E4F0E94181E6091FB06BA
:10549000C8018C559E4F0E94181E8FEF8093F7060F
:1054A000CEC90E94211C87FF7FC50E94211C84FD5C
:1054B0001CC57AC581508093C902809171008D7F8F
:1054C000809371001092C10280ED96E09093C0022B
:1054D0008093BF029093BE028093BD0283E890E068
:1054E0009093D1068093D00682E390E09093D30608
:1054F0008093D20629E430E03093D5062093D40679
:105500009093D7068093D60629E230E03093D906EF
:105510002093D8069093DB068093DA060E94A01AA7
:105520008BCA8F5F8093C902809171008D7F8093B9
:1055300071001092C10280ED96E09093C0028093BA
:10554000BF029093BE028093BD0283E890E09093E7
:10555000D1068093D00682E390E09093D3068093A7
:10556000D20629E430E03093D5062093D4069093F8
:10557000D7068093D60629E230E03093D9062093EF
:10558000D8069093DB068093DA060E94A01A5ECAC2
:1055900089E029C591E020910D07211190E09093B9
:1055A0000D0720910707309108072F5F3F4F309379
:1055B000080720930707FACA80910E0790911407F5
:1055C000882309F40CCB992309F409CB18161CF491
:1055D0000E94A31504CB0E948C1501CBF801E95061
:1055E000F94E85919491ED89FE89E950F94E4591E6
:1055F0005491F801E951F94EC590D490ED89FE8996
:10560000E951F94E059114912CA126952150233092
:1056100008F023CCAB8DBC8D4A0F5B1F970168A1AE
:1056200079A1E98DFA8D8E0F9F1F0E945A184B8D1C
:105630005C8D400F511F970168A179A1898D9A8DCA
:105640008C0D9D1D0E945A1808CCF801328B529681
:105650002C93815009F095CC9F5F953009F090CC48
:1056600002EF16E087E2C82ED12C6F8DE62E660F72
:10567000FF0893E0992ED801ED918D01F0E0EE0F37
:10568000FF1FE851F94FA081B1818C91811128C091
:105690008091FD062091C40240E351E167E270E091
:1056A000082E000C990B0E94AE1B8091090786956D
:1056B000869509F4AEC0692D0E94F6318091FD06F1
:1056C000292F4CE250E169E370E0082E000C990BA1
:1056D0000E94AE1B8091090781508093090799C0F1
:1056E00080911A0716969C911697992309F491C0F8
:1056F000813071F028F0823019F0833089F017C0C2
:1057000013969C9113979B5F953408F082C00FC04D
:1057100013969C9113979C5F943408F07AC007C04D
:1057200013969C91139791509F3308F072C021E01B
:10573000833009F020E01296AD90BC90139745E0BD
:105740004B0D463238F4842F90E0875D9E4FFC016C
:10575000508101C050E05B0D11968C91A7E1B7E13B
:1057600090E06D9170E0685F7F4F762F6627A616F8
:10577000B70624F09F5F9730A1F790E0E92FF0E0A3
:10578000E65FF84F9481E52FE695F0E0692F092E4A
:10579000000C770B77FF03C071956195710930E2BA
:1057A0006302E00DF11D1124E45DF04FE49197FDDB
:1057B000E195463230F4A42FB0E0A15BBE4F3C919E
:1057C00001C034E1A52EB12C682F6503C00111245E
:1057D000B6010E941632CB01805C9F4F8E0F911D47
:1057E000E7FD9A958E0D9F1D463230F4E42FF0E0D0
:1057F000EB58FE4FE08101C0E0E0F0E0EE0FFF1F4C
:10580000E556FE4F40815181B501831B91090E94ED
:10581000AE1B7CA570132FCF20E042E75EE063E073
:1058200070E088E690E00E94AE1B8091050764E678
:105830000E94F631192F282F4AE25EE065E070E001
:105840008AE690E00E94161C812F6AE00E94F631E1
:10585000192F282F4AE25EE065E070E080E790E0D3
:105860000E94161C212F4AE25EE065E070E086E7A8
:1058700090E00E94161C8091FD068B322CF4883239
:1058800044F487FF0AC014C08F321CF0863554F0F0
:105890000FC080910001811105C01092000106E245
:1058A0001DE608C081E08093000107E211E002C01C
:1058B00000E010E0E12EF12C602F70E020E04CEBD6
:1058C0005DE0C7010E94AE1B8C898230E1F090F44C
:1058D00081111AC0E0912E07F0912F07EF70FF277A
:1058E000E695E695F0E0E854F24FF4901F2D1E0D7A
:1058F0000A5F0AC09C89933021F0943029F41A5F22
:1059000002C01A5F01C0055F602F70E020E04AEA24
:105910005DE0812F90E00E94AE1B85E0D1011D92D9
:105920008A95E9F78091070790910807B2010E94D4
:1059300002328101F101CB01B2010E940232819356
:10594000BDA5BE13F8CFF0900001F11002C031E701
:1059500001C039E1F2EEEF2EE30EF80121918F0143
:105960004AE25EE068E370E0832F90E03EA70E9489
:10597000161C3EA536503E11F0CF8091070790913E
:105980000807B2010E940232282FF11003C088E7F5
:1059900090E002C080E290E042E65DE068E370E003
:1059A0000E94161C00912E0710912F0765E070E0F1
:1059B000FDA16F1B7109862F880F680F70E0C80169
:1059C0000E940232892B09F0E1C02C89222309F4BC
:1059D000DDC040910E07842F042E000C990BAA0BFA
:1059E000BB0BFC013796EF30F10540F5E05AFF4F55
:1059F00020910A0730910B070C942A32C80166E007
:105A000070E00E940232892BC9F42F5F3F4F12C011
:105A1000C80169E070E0F5CFC80169E070E00E945C
:105A20000232892B59F404C0C80166E070E0F7CF58
:105A30002150310930930B0720930A0780910A0700
:105A400090910B0780383FEF930734F480589F4FB5
:105A500090930B0780930A0780910A0790910B0798
:105A60001816190634F48058910990930B07809307
:105A70000A0780911707811119C0EFE0F7E027E0CE
:105A80002E0F9191941306C0DF0112974C912E13A3
:105A9000F8CF942FEEE0F7E09F01295F30813917AE
:105AA00009F440C091932E13F9CF3CC08F3FE1F42D
:105AB000E6E1F7E047E020E097E03291321714F496
:105AC000492F232F9150C8F72FE037E0F9019E2F7F
:105AD000921B941738F591919A3FCCF3DF011297FE
