:100000000C94A1070C94C9070C94C9070C94C90758
:100010000C94C9070C94C9070C94C9070C94C90720
:100020000C94C9070C94C9070C94B5100C942711B3
:100030000C94C9070C94C9070C94C9070C94C90700
:100040000C94C9070C94C9070C94C9070C94C907F0
:100050000C94C9070C94C9070C94C9070C941A0B8B
:100060000C94C9070C94C9070C94C9070C94C907D0
:100070000C94C9070C94C9070C94C9070C94C907C0
:100080000C94120C0C94C9070C94C9070C94C90762
:100090000C94C9070C94C9070C94C9070C94C907A0
:1000A0000C94C9070C94C9070C94C907D5F08D149A
:1000B000A1C881CFD9F1AF200000000000000000EE
:1000C00000C020D0D0D0D0D0D0D020C000C020D010
:1000D000D0D0D0D0D0D0D0D0D0A040C020D0D0D0A0
:1000E000D0D0D0D0D0D0D0A04080C020D0D0D0D0E0
:1000F000D02020D0D0D0D0D020C000000000F00808
:10010000E4141414141414141414141414141414DF
:10011000141414141414141414141414141414149F
:10012000141414141414141414141414141414148F
:10013000141414141414141414FCECFCECFCECFC57
:100140003CC3FCFFFF7F037FFFFFFCC33CFF00FFBE
:10015000FFFFFFFFC3C3FFFFFF7F9EE000FFFFFF26
:10016000FFFF030303FFFFFFFFFC0300FFFFFFFF91
:10017000FF0000FFFFFFFFFF00FF00000000EFA0F7
:10018000AFA0A0A0A0A0A0A0A0A0A0A0A0A0A0A060
:1001900020E0E0E0E06020A0A0A020A0A020A0201F
:1001A000A0A0A02020A0A0A0A0A0A0A0A0A0A0A04F
:1001B000A0A0A0A0A0A0A0A0A0EFD7EFD7EF3FC322
:1001C000FCFFFFFF7F1E5E1E7FFFFFFFFCC300FFE3
:1001D000FFFFFFFF0101FFFFFFFFFE8100FFFFFFA9
:1001E000FFFFF0F0F0FFFF7F3F4F70601F7F7FFF4A
:1001F000FFE0E0FFFF7F7F1FE01F00000000FF0720
:100200000383C1E0F0F078383838383878F0F0E01F
:10021000C0800103078C888B8B888A888B888A88AA
:100220008B8B8B88888B8A8A8A8A8A8A8A8A8A8A2E
:100230008A8A8A8A8A8A8A8A8AAF5FAF5FAEFE0616
:10024000FAFAFAFAFA7A7AFAFAFAF6CA327A8EF6FA
:1002500036DAEA6A2AEAFAF6F68A72827A86FAFACE
:10026000FA7AFAFAFA867E86FA06FAFAFAFAFA7A46
:100270007A7AFAFAF6EA92628201061E7C00FF3868
:10028000FFFFFFC7010000000000000001C639C7E2
:10029000FFFFFF3800FF0040FEEA7E407E6A7E409E
:1002A0004040404040404040C0C04040404040404E
:1002B0006E6A7E407E687840401E0D0E8542FF00CB
:1002C000FFAFAFAFEF2828EFAFBFEFD33C00FFAFDA
:1002D000AFFF003C3C00FFAFAFFF0087F8AFAFFFC0
:1002E000CFC0CFFFAFAFF8877F00FFAFAFAFFF004A
:1002F0000000FFAFAFAFFF00FF0000000000FF00F5
:100300000103070F1F1E3C3A3A3A3A3A3D1E1F0FAF
:100310000703010000874444444444444444448463
:1003200004048444444444444444444484040484CD
:1003300044444444444444444402010120504FC0D6
:100340005F5050505F40405F5050505F504E414FA3
:10035000485D575456575B4C4F41585751505C4E6F
:10036000424A424E5C50515758405F505050535291
:10037000525253504846C956210000000000FF0069
:100380000000010701000704070007020700070536
:1003900000000000003F404040515F504040403F5F
:1003A00000003F4040405D55574040403F00003F07
:1003B00040404055555F4040400000000000FF00B5
:1003C000FE01012171F901F971210101718901F920
:1003D00021F901F129F101F911F9017189C901F935
:1003E000A901010109F9090179817901F911F901DD
:1003F000F9A9010101FE00FF000000000000FF005C
:1004000000000000000000000000000000000000EC
:10041000000000FE00A8AAAAAAAAAAAAAAAAAAAA92
:10042000AAAAAAAAAAAAAAAAAAAAAAAAAA02E21234
:100430001202E252E2027252D200000000000708EB
:10044000131414141414141414141414141414146D
:10045000141414141414141414141414141414145C
:10046000141414141414141414141414141414144C
:1004700014141414141308070000000000001F3C9B
:1004800038302828282828282828282828282828D4
:100490002828203F30323232323232323232323257
:1004A0003232323232323232323232323234343525
:1004B0003534353435343535350000000000000062
:1004C000000000000000000000000000000000002C
:1004D000000000000000000000000000000000001C
:1004E000000000000000000000000000000000000C
:1004F00000000000000000000000000000000000FC
:1005000000000000000000000000000000000000EB
:1005100000000000000000000000000000000000DB
:1005200000000000000000000000000000000000CB
:1005300000000000000000000000000000000000BB
:1005400000000000000000000000000000000000AB
:10055000000000000000000000000000000000009B
:10056000000000000000000080808080808000008B
:10057000000080808080808080800000000000007B
:10058000000000000000000000000000000000006B
:10059000000000000000000000000000000000005B
:1005A000000000000000000000000000000000004B
:1005B000000000000000000000000000000000003B
:1005C000000000000000000000000000000000002B
:1005D000000000000000000000000000000000001B
:1005E0000000000000020A2AA8A38F3FFFFFFEF0D0
:1005F0008000FFFFFFFFFFFFFF070000000000007B
:1006000080808080C0C000800000000000000000EA
:1006100000000000000000000000000000000000DA
:1006200000000000000000000000000000000000CA
:1006300000000000000000000000000000000000BA
:1006400000000000000000000000000000000000AA
:10065000000000000000000000000000000000009A
:10066000000000000000000000020A0A28A3871F03
:100670007FFCFFFFFFFFFF7F01F0F8FCFE06A30BEE
:1006800007073F0F230802000000000000000000E1
:10069000000000000000000000000000000000005A
:1006A000000000000000000000000000000000004A
:1006B000000000000000000000000000000000003A
:1006C000000000000000000000000000000000002A
:1006D000000000000000000000000000000000001A
:1006E0000000000000000000000000000000020AFE
:1006F00028A1871F7FFF1F0080F1F3F3636322B2FD
:100700001E20280000000000000000000000000083
:1007100000000000000000000000000000000000D9
:1007200000000000000000000000000000000000C9
:1007300000000000000000000000000000000000B9
:1007400000000000000000000000000000000000A9
:100750000000000000000000000000000000000099
:10076000000000000000000000000000080808C8A9
:1007700008884A8A48480888498908CA480948C8F0
:100780004808080800000000000000000000000009
:100790000000000000000000000000000000000059
:1007A0000000000000000000000000000000000049
:1007B0000000000000000000000000000000000039
:1007C0000000000000000000000000000000000029
:1007D0000000000000000000000000000000000019
:1007E0000000000000000000000000000000000009
:1007F00003000002030300010201000301000003E3
:1008000000000000000000000000000000000000E8
:1008100000000000000000000000000000000000D8
:1008200000000000000000000000000000000000C8
:1008300000000000000000000000000000000000B8
:1008400000000000000000000000000000000000A8
:100850000000000000000000000000000000000098
:100860000000000000000000000000000000000088
:100870000000000000000000000000000000000078
:100880000000000000000000000000000000000068
:100890000000000000000000000000000000000058
:1008A0000000000000000000000000000000000048
:1008B00000000000000000000004083E09093E3F5F
:1008C00025251A1E2121123F21211E3F2525213FCA
:1008D0000505011E21293A3F04043F213F21001054
:1008E00021211F3F040A313F2020203F02023F3FC9
:1008F00002043F1E21211E3F0909061E21112E3F21
:1009000009093622252519013F01011F20201F0F4B
:1009100010201F3F10103F3B04043B0304380731F5
:100920002D2321102A2A3C3F2424181C222214188B
:1009300024243F1C2A2A2C043E05014C52523E3FDF
:10094000040438243D20004040443D3F0814222147
:100950003F20003E04043E3E04023C1C22221C7E3A
:1009600022221C1C22227E3E040204242A2A120275
:100970001F22201E20201E0E10201E3E10103E366C
:100980000808364E50503E322A26221E29251E22A5
:100990003F2000322929261221251A0C0A3F081768
:1009A0002525191E252518013905031A25251A069E
:1009B00029291E002F000000200000022905020046
:1009C0000404000102040810204080000000000020
:1009D0003E5B4F5B3E3E6B4F6B3E1C3E7C3E1C18AD
:1009E0003C7E3C181C577D571C1C5E7F5E1C00180B
:1009F0003C1800FFE7C3E7FF0018241800FFE7DBFF
:100A0000E7FF30483A060E2629792926407F05055A
:100A100007407F05253F5A3CE73C5A7F3E1C1C0897
:100A2000081C1C3E7F14227F22145F5F005F5F065C
:100A3000097F017F006689956A606060606094A2AA
:100A4000FFA29408047E040810207E201008082AC3
:100A50001C08081C2A08081E101010100C1E0C1E62
:100A60000C30383E3830060E3E0E06000000000006
:100A700000005F00000007000700147F147F1424AB
:100A80002A7F2A1223130864623649562050000830
:100A9000070300001C2241000041221C002A1C7F89
:100AA0001C2A08083E080800807030000808080862
:100AB00008000060600020100804023E5149453ED5
:100AC00000427F400072494949462141494D33184F
:100AD00014127F1027454545393C4A494931412187
:100AE0001109073649494936464949291E0000146B
:100AF00000000040340000000814224114141414B3
:100B000014004122140802015909063E415D594E64
:100B10007C1211127C7F494949363E414141227F76
:100B20004141413E7F494949417F090909013E410F
:100B30004151737F0808087F00417F4100204041F8
:100B40003F017F081422417F404040407F021C0249
:100B50007F7F0408107F3E4141413E7F090909061D
:100B60003E4151215E7F09192946264949493203F0
:100B7000017F01033F4040403F1F2040201F3F4076
:100B800038403F631408146303047804036159492F
:100B90004D43007F41414102040810200041414182
:100BA0007F04020102044040404040000307080067
:100BB00020545478407F28444438384444442838EA
:100BC0004444287F385454541800087E090218A45D
:100BD000A49C787F0804047800447D4000204040B5
:100BE0003D007F1028440000417F40007C047804D1
:100BF000787C080404783844444438FC18242418C9
:100C000018242418FC7C0804040848545454240470
:100C1000043F44243C4040207C1C2040201C3C409D
:100C200030403C44281028444C9090907C446454BC
:100C30004C440008364100000077000000413608AF
:100C40000002010204023C2623263C1EA1A16112DF
:100C50003A4040207A38545455592155557941210C
:100C600054547841215554784020545579400C1EF5
:100C7000527212395555555939545454593955549D
:100C800054580000457C410002457D420001457CEE
:100C900040F0292429F0F0282528F07C54554500FF
:100CA0002054547C547C0A097F49324949493232E4
:100CB00048484832324A4848303A4141217A3A421B
:100CC000402078009DA0A07D39444444393D4040F7
:100CD000403D3C24FF2424487E4943662B2FFC2FB3
:100CE0002BFF0929F620C0887E090320545479413E
:100CF0000000447D413048484A32384040227A0062
:100D00007A0A0A727D0D19317D2629292F28262974
:100D100029292630484D40203808080808080808C6
:100D200008382F10C8ACBA2F102834FA00007B0006
:100D30000008142A142222142A140895002200956F
:100D4000AA005500AAAA55AA55AA000000FF001043
:100D50001010FF00141414FF001010FF00FF1010FB
:100D6000F010F0141414FC001414F700FF0000FF3E
:100D700000FF1414F404FC141417101F10101F109B
:100D80001F1414141F00101010F0000000001F109A
:100D90001010101F10101010F010000000FF1010A5
:100DA00010101010101010FF10000000FF140000B1
:100DB000FF00FF00001F10170000FC04F4141417BC
:100DC00010171414F404F40000FF00F714141414A2
:100DD000141414F700F7141414171410101F101F14
:100DE000141414F4141010F010F000001F101F0061
:100DF00000001F14000000FC140000F010F01010A0
:100E0000FF10FF141414FF141010101F0000000036
:100E1000F010FFFFFFFFFFF0F0F0F0F0FFFFFF002A
:100E200000000000FFFF0F0F0F0F0F38444438443D
:100E30007C2A2A3E147E02020606027E027E02639D
:100E4000554941633844443C04407E201E2006023C
:100E50007E020299A5E7A5991C2A492A1C4C720119
:100E6000724C304A4D4D303048784830BC625A465A
:100E70003D3E494949007E0101017E2A2A2A2A2A4B
:100E800044445F444440514A444040444A51400035
:100E900000FF0103E080FF000008086B6B083612BA
:100EA000362436060F090F0600001818000000103F
:100EB00010003040FF0101001F01011E00191D1725
:100EC00012003C3C3C3C0000000000080B00020209
:100ED00002010009040000010202000005240010C4
:100EE000010524010101042402060524060001076E
:100EF00005810310004009040100020A00000007F8
:100F000005020240000007058302400000040309B7
:100F10000412010002EF020140412336800001016A
:100F200002030141726475696E6F204C4C430041AD
:100F3000726475696E6F204C656F6E6172646F00CC
:100F4000771611241FBECFEFDAE0DEBFCDBF11E070
:100F5000A0E0B1E0E4E6FFE202C005900D92A83601
:100F6000B107D9F726E0A8E6B1E001C01D92A3328F
:100F7000B207E1F717E0C1EAD7E004C02197FE010C
:100F80000E94A517C03AD107C9F70E9457130C94C5
:100F9000B0170C940000CF92DF92EF92FF920F9364
:100FA0001F93CF93DF936C017A018B01C0E0D0E0F7
:100FB000CE15DF0589F0D8016D918D01D601ED9137
:100FC000FC910190F081E02DC6010995892B11F467
:100FD0007E0102C02196ECCFC701DF91CF911F9116
:100FE0000F91FF90EF90DF90CF9008950E94AB1784
:100FF00080917101E0916F01F0917001882349F0B7
:10100000CF0102969093700180936F018591949126
:101010000895CF0102969093700180936F018081B3
:10102000918108954F925F927F928F929F92AF929B
:10103000BF92CF92DF92EF92FF920F931F93CF93C5
:10104000DF9300D000D0CDB7DEB729011C2DA02E34
:10105000B12C9C012A0D3B1D121613060CF0B3C1D6
:10106000803891050CF0AFC1FB01EE0DF11D1E168D
:101070001F060CF0A8C1603471050CF0A4C1411525
:10108000510509F4A0C1E62FE770FE2EFB0177FDA4
:101090003796A3E0F595E795AA95E1F7AE2F77FF90
:1010A00004C0FF2011F0AFEFAE0F97FF05C0EE2791
:1010B000FF27E81BF90B02C0E0E0F0E02038310523
:1010C00024F020E8722E781A01C0702E7E1A6A2F42
:1010D0000A2E000C770BAF3F1CF4D62ED09401C023
:1010E000D12C21E03E2D377009F420E0E694E694FF
:1010F000E694E20E6E0D711D693071051CF028E05A
:10110000E22EEA1AED183D2D3A0FDC0120E83203F9
:10111000A00DB11D1124AE0FBF1FD09EE00DF11D1B
:1011200011244E0F5F1F81E090E04C010F2C02C094
:10113000880C991C0A94E2F7133009F403C1A0F457
:10114000113009F4B5C0123009F03DC18FEF889D10
:10115000B001899D700D1124609570957C836B831F
:101160005C802E2D230F2BC01A3F31F01B3F09F05E
:101170002AC12E2D230F88C02E2D230F51C0FA0116
:10118000E00FF11FE491E89D6001E99DD00C11246E
:10119000DA82C98237FD07C0FC01E080EE2DE6232C
:1011A000CE2AFC01C082F11013C00F5F1F4F0196C1
:1011B000071528F33F5F4A0D5B1DA058BF4F32173C
:1011C00009F401C1CD0189579E4F00E010E0F0CF36
:1011D00037305CF7FC01E058FF4FD080D520CA8043
:1011E000DC28D082E2CFFA01E60FF71FE491E89DF8
:1011F0008001E99D100D11241A83098337FD04C075
:10120000FC011081012B0083F11013C06F5F7F4F31
:101210000196671540F33F5F4A0D5B1DA058BF4F15
:10122000321709F4D0C0CD0189579E4F60E070E0BD
:10123000F0CF37305CF78C0100581F4FF801E08089
:10124000EA81EE2AF801E082E1CFFA01E00FF11F16
:10125000E491E89DC001E99D900D11249A83898352
:1012600037FD05C08095FB01908189238083F110B3
:1012700014C00F5F1F4F6F5F7F4F071530F33F5F45
:101280004A0D5B1DA058BF4F321709F49CC0BD0129
:1012900069577E4F00E010E0F0CF373054F7FB0184
:1012A000E058FF4F8A818095908189238083E1CF28
:1012B000C2018E0F9F1F2E2D230F321709F483C0FA
:1012C000BD0169577E4F6B0100E010E0071590F5F6
:1012D000FC01E00FF11FE491E89DB001E99D700D64
:1012E0001124609570957C836B83FA01E00FF11FE8
:1012F000E491E89D2001E99D500C11245A82498215
:1013000037FD05C0F60170816723462A4082FF2021
:1013100059F037304CF4F601E058FF4F70816C8182
:1013200067237A81672B60830F5F1F4FFFEFCF1A10
:10133000DF0ACCCF3F5F4A0D5B1D8A0D9B1DA05875
:10134000BF4FBBCFC72CD12CE40FF51FA957BE4F01
:1013500060E870E06C197D09AC18BD088501000FCC
:10136000111F572D2E2DCF93DF93ED01EF96EF96A2
:101370002296A590C590FF2059F0A89C5001C89CCA
:10138000600137302CF4E880D094ED20EB28E9920E
:1013900033233AF0EC90C094EC20EA28ED920C94C0
:1013A000D20911965A9529F72A9551F0572D339560
:1013B0001124E00FF11DA60FB11DC60FD11DD9CF0D
:1013C000DF91CF9111240F900F900F900F90DF912C
:1013D000CF911F910F91FF90EF90DF90CF90BF9032
:1013E000AF909F908F907F905F904F9008958091E5
:1013F000680108950895CF92DF92EF920F931F93A3
:10140000CF93DF93FC016A3039F485818483968120
:101410008185890F8683A1C0A4816E3719F4AD5FE1
:10142000A4839BC0962FEF0166816F5F9A3354F4BB
:101430009033DCF49D32E1F09E3299F0913209F064
:1014400053C018C09B3534F491346CF49F3309F4C5
:1014500051C04AC08FE9890F8A3108F045C019EBA5
:1014600005C01FE308C01FEB01C014E0190F03C043
:1014700011E401C01EE38F81062E000C770B0A2EAB
:10148000000CBB0B813009F03AC0E9EBF8E00491A5
:10149000EAEBF8E0E490112379F1E02FF0E02E2D53
:1014A000269526952695422F50E021E030E08E2D9E
:1014B000877011F420E030E0240F351FE29F6001B7
:1014C000E39FD00CF29FD00C112496011203A001CF
:1014D000139F500D11244554574F9AEFC92E20E009
:1014E00030E0CD010E94120888858C5F9C81890FB5
:1014F0008C8333C010E4BFCF4BEB58E0EECFE9EB69
:10150000F8E00491EAEBF8E0E490112309F1E02F10
:10151000F0E02E2D269526952695422F50E021E0CD
:1015200030E08E2D877011F420E030E0240F351F5D
:10153000E29F6001E39FD00CF29FD00C1124960132
:101540001203A001139F500D11244554574F02C0A0
:101550004BEB58E08BEFC82EC2CF81E090E0DF91DB
:10156000CF911F910F91EF90DF90CF900895089544
:1015700080E090E008953FB7F89480917F019091CA
:101580008001A0918101B091820126B5A89B05C080
:101590002F3F19F00196A11DB11D3FBFBA2FA92FF2
:1015A000982F8827820F911DA11DB11DBC01CD016F
:1015B00042E0660F771F881F991F4A95D1F708955B
:1015C0008F929F92AF92BF92CF92DF92EF92FF9253
:1015D0006B017C010E94BB0A4B015C01C114D10468
:1015E000E104F104F1F00E94BB0ADC01CB0188198F
:1015F0009909AA09BB09883E9340A105B10570F37A
:1016000021E0C21AD108E108F10888EE880E83E0D3
:10161000981EA11CB11CC114D104E104F10419F7F6
:10162000DDCFFF90EF90DF90CF90BF90AF909F9075
:101630008F9008951F920F920FB60F9211242F933F
:101640003F938F939F93AF93BF9380916901909144
:101650006A01A0916B01B0916C0130917E0123E091
:10166000230F2D3720F40196A11DB11D05C026E8DA
:10167000230F0296A11DB11D20937E018093690165
:1016800090936A01A0936B01B0936C0180917F01EC
:1016900090918001A0918101B09182010196A11DDC
:1016A000B11D80937F0190938001A0938101B0933D
:1016B0008201BF91AF919F918F913F912F910F9098
:1016C0000FBE0F901F901895CF92DF92EF92FF926E
:1016D0000F931F93CF93DF930E94F807811520E8A3
:1016E000920761F4809171008D7F80937100109258
:1016F000910046984798109277018BC021E0209383
:101700007701813020E8920751F480916D0190912A
:101710006E019093700180936F010E94F80797FD0E
:1017200005C020917601222309F43FC02091750164
:1017300021113BC021E020937801EC01DF77209755
:1017400069F481E08093790146983FE9C32E3FE038
:10175000D32EE12CF12CCAEFD0E014C08E0120E092
:1017600030E060E472E48FE090E0A90198010E940B
:10177000421769017A0181E0C81AD108E108F1082D
:1017800010927901E0919505F091960509958111E6
:1017900003C081E080937901809178018823B9F1B9
:1017A00080917901811133C003C010927801C5CFB7
:1017B00046992DC0479A0E94F807009771F09C0146
:1017C000DE010E949617DC01CB0129E0B595A795B3
:1017D000979587952A95D1F703C08FEF9FEFDC018E
:1017E000109290002AE020939100D0929900C0922C
:1017F000980080937A0190937B01A0937C01B09331
:101800007D018091710082608093710002C04798D1
:10181000D2CFDF91CF911F910F91FF90EF90DF908A
:10182000CF9008951F920F920FB60F9211242F930D
:101830003F934F935F936F937F938F939F93AF9358
:10184000BF93EF93FF9380917A0190917B01A091D8
:101850007C01B0917D01892B8A2B8B2B81F18091AA
:10186000790181110BC098B180E4892788B98091F2
:101870007801882319F088B1805888B980917A015D
:1018800090917B01A0917C01B0917D011816190601
:101890001A061B06B4F480917A0190917B01A09105
:1018A0007C01B0917D010197A109B10980937A0172
:1018B00090937B01A0937C01B0937D0102C00E94B4
:1018C000640BFF91EF91BF91AF919F918F917F91A9
:1018D0006F915F914F913F912F910F900FBE0F909D
:1018E0001F901895BC0180E090E00C94E00A8FB145
:1018F0008095807F669B88601C9B8460089560381B
:101900007105D0F440345105B8F4E3ECF9E080E11E
:10191000849FD001A0781124A60F4770E40FF11D19
:101920008491A957BE4F222319F06C91862B03C0D6
:1019300080956C9186238C9308952F923F924F92BD
:101940005F926F927F928F929F92AF92BF92CF924F
:10195000DF92EF92FF920F931F93CF93DF93CDB758
:10196000DEB729970FB6F894DEBF0FBECDBFFC01DE
:101970006A3069F425898189928938E0239F800D36
:10198000911D1124928B818B108A1786AAC06D300D
:1019900009F4A7C099878887F588348823886188E7
:1019A00072880785108900381105C4F0A885B985AB
:1019B00055962C915597422F50E01F968D919C91F2
:1019C0005097B6E02B9F800D911D1124E885F98575
:1019D000908B8787268921116EC083C0F0E46F1633
:1019E000710424F7C80125E0F29E800D911D112499
:1019F00018161906DCF68F2D90E09C838B83C301AB
:101A0000A8E0FA9E800D911D11241816190674F68F
:101A1000B5E06B9FB0011124FB01E553F64FFA834B
:101A2000E98330E08885998504969E838D83E981DA
:101A3000FA81E490353009F4E12C430188E0482E26
:101A4000E0FC02C0532C01C0522C51100BC03210CC
:101A500009C0E6944A948B819C81880E991E41109E
:101A6000EFCF1BC068018C2D801B8F1590F75401A0
:101A70008A2D88198F1568F4252DA501B6018D8151
:101A80009E813F830E947F0C9FEFA91AB90A3F8174
:101A9000EFCFAFEFCA1ADA0AE6CF3F5FEB81FC81E6
:101AA0000E0F1F1F89819A8101969A838983363090
:101AB00009F0BDCF7BCF6AEF64039001659F300DC5
:101AC000112420583F4F281739075CF4A885B985A1
:101AD000ED91FC9111970190F081E02D6AE0CD012C
:101AE000099581E090E029960FB6F894DEBF0FBE0D
:101AF000CDBFDF91CF911F910F91FF90EF90DF90BD
:101B0000CF90BF90AF909F908F907F906F905F909D
:101B10004F903F902F900895FC0180918601811194
:101B200003C08FEF9FEF08959FB7F89482E08093F2
:101B3000E9002091F20030E01216130614F421E0BF
:101B400030E02115310559F0289884E6809385010D
:101B50008091F10080838091F200882319F09FBF6B
:101B6000C90108958BE68093E800F9CF2FB7F89468
:101B700083E08093E9009091E800892F807295FFBF
:101B800004C09091F20080E4891B2FBF0895CF9389
:101B9000DF931F92CDB7DEB76983DC01ED91FC9135
:101BA0000280F381E02D41E050E0BE016F5F7F4F86
:101BB00009950F90DF91CF91089583E08093E9001C
:101BC0008091F200882319F08AE38093E800089559
:101BD0000E94B60D90E00895CF93DF931F92CDB78A
:101BE000DEB7FC018485958597FD05C02FEF3FEF9B
:101BF000358724870BC0CE0101960E948C0D01977A
:101C000019F4898190E002C08FEF9FEF0F90DF9170
:101C1000CF9108950F931F93CF93DF931F92CDB76A
:101C2000DEB78C01FC018485958597FF0EC0CE013F
:101C300001960E948C0D019719F4298130E002C0B1
:101C40002FEF3FEFF80135872487F80184859585CC
:101C50000F90DF91CF911F910F910895FC01848522
:101C6000958597FD0BC09FB7F89482E08093E900BB
:101C70008091F2009FBF90E0019608959FB7F8947D
:101C800082E08093E9008091F2009FBF90E0089588
:101C90008F929F92AF92BF92CF92DF92EF92FF927C
:101CA0000F931F93CF93DF935C016B017A018091B7
:101CB0000701882309F45BC080918601882309F419
:101CC00056C08091840180FF05C08091E000826051
:101CD0008093E000E70110E00AEF83E0882E9AE3AA
:101CE000992E2097D9F10E94B60D81110AC001509A
:101CF00009F43DC061E070E080E090E00E94E00AFD
:101D0000F0CF282F30E0C217D3070CF48C2F4FB739
:101D1000F8948092E9009091E80095FF1DC0282F6B
:101D200030E0C21BD30BF601982F915020F0819127
:101D30008093F100FACFC20ED31E112319F09092B6
:101D4000E80009C08091E80085FD06C09092E80097
:101D500011E0209709F010E04FBFC3CF1111C3CF9E
:101D60005D9884E6809383011E141F0444F081E093
:101D700090E0F5019383828380E090E001C0C70189
:101D8000DF91CF911F910F91FF90EF90DF90CF9057
:101D9000BF90AF909F908F9008959C01240F311DAC
:101DA0001216130684F5803891056CF5FC0197FF37
:101DB00002C0E0E0F0E02138310514F020E830E026
:101DC0002E1BAB014770552781E090E001C0880FC2
:101DD0004A95EAF7809577FF02C0695F7F4F93E0ED
:101DE000759567959A95E1F77695762F662777959D
:101DF0006795E60FF71FE957FE4F215020F09081BD
:101E000098239193FACF089520E030E0D901A957A3
:101E1000BE4F40E050E0FA01E20FF31FE80FF91F58
:101E2000E4916C91E62BED934F5F5F4F4038510585
:101E300091F720583F4F211544E0340739F70895B2
:101E4000009769F0FC0101900020E9F73197AF019C
:101E5000481B590BBC0180EA95E00C94CB0780E04D
:101E600090E008955F926F927F928F929F92AF92CF
:101E7000BF92CF92DF92EF92FF920F931F93CF9377
:101E8000DF93EC018B01CB018C1B9D0B97FF03C0F3
:101E900091958195910955245394039754F0512CB1
:101EA0000C171D076CF07E018CE190E0C9E1D0E0D9
:101EB0000DC0C8010CE110E039E1E32EF12C06C0A1
:101EC00078018E0189E190E0CCE1D0E038016E1814
:101ED0007F085C01AC1ABD0AB7FE03C0B194A1949F
:101EE000B108630177FE03C02FEFC21AD20AD5945E
:101EF000C794C817D90714F08FEF01C081E0882E6E
:101F0000880F99080E151F05C4F021E0552019F01F
:101F1000A701BE0102C0AE01B7018EEA95E00E94A2
:101F20007F0CCA18DB08D7FE04C0C80DD91DC60C2B
:101F3000D71C8FEFE81AF80AE5CFDF91CF911F91F8
:101F40000F91FF90EF90DF90CF90BF90AF909F9058
:101F50008F907F906F905F90089580E0E7E8F1E0C8
:101F600081118FEF00248193819381938193039456
:101F7000D1F7EAEAF5E0128A118A108A17860895E5
:101F8000E7E8F1E080E0A0E0B8E000800EBC81115D
:101F9000012C1197A0FDFDCF0192B9F70DB4089562
:101FA0008091C50581110DC082E08093C10584E058
:101FB0008093C2051092C4051092C30581E08093FE
:101FC000C50581EC95E008954091210650912206C7
:101FD00020911F063091200642175307B4F49091C8
:101FE000E8009570E1F39091E80092FD19C08093AC
:101FF000F100809121069091220601968F73992716
:10200000892B19F48EEF8093E8008091210690913E
:1020100022060196909322068093210681E008957E
:1020200080E00895CF92DF92EF92FF920F931F937B
:10203000CF93DF931F92CDB7DEB7182F062FE42E74
:10204000862F880F8E5F99830E94E40F83E00E94A1
:10205000E40FF12EC12E9981D92E8C2D8F19801766
:1020600098F4F601E7FE02C0849101C080810E94CD
:10207000E40F182F80E00E94E40F8123FFEFCF1AB6
:10208000DF0A8111EACF01C081E00F90DF91CF918B
:102090001F910F91FF90EF90DF90CF900895DF9206
:1020A000EF92FF920F931F93CF93DF93D82E8A0165
:1020B0007B01E40EF51EEB01CE15DF0571F0D7FEB6
:1020C00003C0FE01849101C088810E94E40F219623
:1020D0008111F2CF8FEF9FEF01C0C801DF91CF9147
:1020E0001F910F91FF90EF90DF900895615030F0B5
:1020F0002091F100FC0120830196F8CF289884E616
:102100008093850108950F931F93CF93DF931F92C0
:10211000CDB7DEB782E0898342E450E06BEC7EE02D
:1021200080E80E944F100E94D00FDC0112960D91A2
:102130001C9113970115110569F0D801ED91FC91DF
:102140000280F381E02DBE016F5F7F4FC8010995CA
:1021500097FF07C089810F90DF91CF911F910F9159
:102160000895F80100851185E5CF1F920F920FB6F3
:102170000F9211248F939F938091E1009091E10041
:10218000937F9093E10083FF0FC01092E90091E0EC
:102190009093EB001092EC0092E39093ED0010927C
:1021A000860198E09093F00082FF20C093E0909326
:1021B000E9009091F200992319F09AE39093E800D6
:1021C00090918301992339F09091830191509093DC
:1021D0008301992389F190918501992339F0909198
:1021E0008501915090938501992341F184FF10C09E
:1021F0008091E2008E7E81608093E2008091E10018
:102200008F7E8093E100809184018E7E806111C079
:1022100080FF16C08091E2008E7E80618093E20094
:102220008091E1008E7E8093E100809184018E7E1A
:1022300081608093840104C05D9ACDCF289AD6CF67
:102240009F918F910F900FBE0F901F9018951F9226
:102250000F920FB60F921124CF92DF92EF92FF925E
:102260000F931F932F933F934F935F936F937F939E
:102270008F939F93AF93BF93EF93FF93CF93DF938E
:10228000CDB7DEB76C97DEBFCDBF1092E90080916D
:10229000E80083FFEDC168E0CE0145960E9476100C
:1022A00082EF8093E8008D8987FF05C09091E80058
:1022B00090FFFCCF03C09EEF9093E800982F90769C
:1022C00009F0C6C09E892F89188D91110CC08038E5
:1022D00029F480911E068093F10002C01092F10053
:1022E0001092F10048C1422F50E0512B913051F42F
:1022F000811141C14130510509F03DC180911E0657
:102300008D7F0BC0933061F4811135C1413051058F
:1023100009F031C180911E06826080931E062BC198
:10232000953041F48091E80080FFFCCF2068209335
:10233000E30021C1963009F05FC0EB8CFC8C109259
:10234000E9001092220610922106123091F51092A7
:10235000200610921F060E94831099E0BE016F5F55
:102360007F4FDB01E92F1D92EA95E9F799831A83E4
:1023700091E09E8390EA98879AEF998720912106B1
:1023800030912206275F3F4F3C832B838D83109231
:10239000E9001092220610922106F0922006E092A7
:1023A0001F0649E050E080E00E944F100E94831019
:1023B000E2C0F0922006E0921F060E94D00FDC01DE
:1023C0001296ED90FC901397E114F10409F4C0C04B
:1023D000D701ED91FC910480F581E02DBE016B5E8B
:1023E0007F4FC7010995009719F00CF0C4C0C7C012
:1023F000F701E084F184E8CF973009F4C0C0983049
:1024000021F481E08093F100B6C0993009F0B3C0A7
:10241000837009F0B4C0E3E4F1E081E021E036E349
:102420009081992361F08093E9002093EB009191D2
:102430009093EC003093ED008F5F873089F78EE743
:102440008093EA001092EA008F898093860193C0FE
:102450008B8D9C8D1092E90010922206109221061D
:102460009093200680931F06898D811156C08E8916
:102470009D89913A59F4813209F081C047E050E0DA
:1024800060E071E080E00E944F1075C0913209F069
:1024900076C0833289F4888D90E0982F88272F8921
:1024A000822BA0E0B0E08093080190930901A093F3
:1024B0000A01B0930B015FC0803269F48091E8009B
:1024C00082FFFCCF67E080E091E00E9476108BEF06
:1024D0008093E80006C0823209F04DC08F89809356
:1024E000070180911D06882319F0EEEFFAE002C083
:1024F000E0E0F8E08091000190910101A0910201DB
:10250000B0910301803B9440A105B10509F07BC067
:102510008091070180FF93C076C00E94D00FDC013C
:1025200012960D911C9113970115110541F1D801D7
:10253000ED91FC910190F081E02DBE016B5E7F4F2B
:10254000C8010995811117C0F80100851185ECCFEC
:10255000113009F44EC0133091F48F89882309F4A7
:1025600045C0823081F440E860E18FE29FE00E9444
:102570001210882321F08EEF8093E80079C081E269
:102580008093EB0075C0813029F440E86BE083E272
:102590009FE0EDCF833099F70E94D00FDC011296B7
:1025A000ED90FC9013978E010F5F1F4F6801E114AF
:1025B000F10479F0D701ED91FC910680F781E02DCF
:1025C000B801C7010995080F111DF701E084F184D6
:1025D000EECFD8011C92F60101900020E9F7319767
:1025E000BF016C197D0940E0C601C1CF6DE07FE0FD
:1025F00002C061E17FE06115710509F2FB014491C0
:1026000050E080E840CF0FB6F894A8958091600024
:10261000886180936000109260000FBEA895EE3F25
:102620002AE0F20739F08091FE0A9091FF0A918327
:102630008083A1CF1092FF0A1092FE0A9CCFEE3F3A
:102640008AE0F80731F0808191819093FF0A8093AE
:10265000FE0A87E797E7918380839BE088E10FB6C6
:10266000F894A895809360000FBE9093600083CF8C
:102670006C960FB6F894DEBF0FBECDBFDF91CF9141
:10268000FF91EF91BF91AF919F918F917F916F914A
:102690005F914F913F912F911F910F91FF90EF907C
:1026A000DF90CF900F900FBE0F901F9018957894E9
:1026B00084B5826084BD84B5816084BD85B5826047
:1026C00085BD85B5816085BD80916E0081608093F8
:1026D0006E00109281008091810082608093810061
:1026E0008091810081608093810080918000816071
:1026F000809380008091910082608093910080910E
:10270000910081608093910080919000816080931E
:1027100090008091C10084608093C1008091C100CD
:1027200082608093C1008091C10081608093C1006C
:102730008091C30081608093C3008091C00082605B
:102740008093C0008091C20081608093C20080911C
:102750007A00846080937A0080917A00826080930E
:102760007A0080917A00816080937A0080917A006B
:10277000806880937A001092860110921E06109253
:1027800084018091D70081608093D70080EA809394
:10279000D80089B5806189BD89B5826089BD09B4D9
:1027A00000FEFDCF61E070E080E090E00E94E00A72
:1027B0008091D8008F7C80618093D8008091E00068
:1027C000807F8093E0008091E1008E7E8093E10025
:1027D0008DE08093E200559A209AEEEFFFE7859115
:1027E00094918B3F9C4D19F481E080931D0681EC00
:1027F00080937C0085B1806F85B984B1877E84B970
:1028000084B1876E84B95E9A5F988AB1806D8AB907
:10281000769A6E9881B3806F81BB899880B38D70F2
:1028200080BB80E58CBD81E08DBD85E090E00E949D
:10283000720C5F9A85E090E00E94720C5E985C9842
:10284000ECEAF0E08DE08E0F94919EBD00000DB497
:1028500007FEFDCF31968E13F7CF5C9A81E8809307
:102860006400809165008160809365000E94770C10
:1028700087FF24C05C9885EA8EBD00000DB407FE7A
:10288000FDCF5C9A2E982F982D98809164008062DD
:102890008093640081E083BF889513BEFCCF2D98A0
:1028A0000E94770C8478843871F00E94770C8471D0
:1028B000843129F188EC90E00E94720C0E94770C20
:1028C00082FDEDCF38C02D9A88EC90E00E94720C0A
:1028D0002F9882E090E00E942C178F3F29F06FEF35
:1028E00082E090E00E94341784EF91E00E94720C25
:1028F0002F9A0E94770C84788438D9F3D6CF2D9AFA
:1029000088EC90E00E94720C2E9882E090E00E9489
:102910002C17882329F060E082E090E00E943417B1
:1029200084EF91E00E94720C2E9A0E94770C8471C1
:102930008431D9F3BFCF2D9A82E090E00E942C170A
:10294000882331F03E9A3F9A81E08093680104C069
:10295000109268013E983F98809164008E7F80932A
:10296000640080917A00806480937A0080917A007C
:1029700086FDFCCFC0917800D09179000E94BB0AFF
:102980008E0120E030E0980111270027600F711FB1
:10299000821F931F611571058105910511F00E9439
:1029A00023178091640081608093640080E18093AC
:1029B000B5051092970580E280939805809399055C
:1029C00080939A0580939B0580939C0580939D0539
:1029D00020E8C22ED12C07E815E033E8A32EB12C55
:1029E000C2E3D0E049E4842E912C3324339489E26D
:1029F000E82EF12C90E0492E90E0592E8FB7F894F4
:102A00004091690150916A0160916B0170916C0174
:102A10008FBF8091B605942F981B892F9091B70591
:102A2000992329F08093B8051092B7050FC19091B2
:102A3000B505891740F48F5F891708F007C133BEC9
:102A4000889513BE03C13092B7054093B6058091B7
:102A5000B1059091B20501969093B2058093B105AE
:102A60000E94AD0F8091B3058093B4050E94770C4E
:102A70008093B3050E94AD0F80917401811125C030
:102A800089EB94E00E94040F612C712C209073015B
:102A9000422DB30180E090E00E94CD0EB3016F5F44
:102AA0007F4F422DC601821991090E94CD0E22E06E
:102AB000620E711C80E46816710441F727FCCDC0DA
:102AC00022E0220D20937301BFC0813009F0BCC009
:102AD00089EB90E00E94040F612C712C209073010F
:102AE000422DB30180E090E00E94CD0EB3016F5FF4
:102AF0007F4F422DC601821991090E94CD0E92E0AE
:102B0000690E711C20E46216710441F7222021F045
:102B10002CEF220D209373018AE48093A505809306
:102B2000A40595E09093A60580917201811109C0DA
:102B300089E491E00E94200F67E670E087E690E06C
:102B40000AC0813059F483E591E00E94200F61E7CB
:102B500070E081E790E00E94320F06C0823021F4DD
:102B60008DE591E00E94200F8091B40585FD34C071
:102B70008091B30585FF30C080917201882361F197
:102B8000815080937201809171008D7F80937100DC
:102B9000109271011093700100936F0110936E01F8
:102BA00000936D01B0928805A0928705D0938A05A5
:102BB000C093890590928C0580928B05D0938E05E9
:102BC000C0938D05F0929005E0928F05D093920509
:102BD000C09391050E94640B8091B40586FD34C0BA
:102BE0008091B30586FF30C080917201823060F51C
:102BF0008F5F80937201809171008D7F809371004F
:102C0000109271011093700100936F0110936E0187
:102C100000936D01B0928805A0928705D0938A0534
:102C2000C093890590928C0580928B05D0938E0578
:102C3000C0938D05F0929005E0928F05D093920598
:102C4000C09391050E94640B0E94C00F411451046F
:102C500009F4D4CE0E940000C8CE20E8209373016E
:102C600030927401F1CF0F931F93CF93DF938C01B8
:102C700081E090E00E942C1780FF31C08AE090E054
:102C80000E942C179FEF980F9E3F48F522E330E0FB
:102C9000D80150963C932E931F9728E330E052962C
:102CA0003C932E935197CBE0D0E0D801ED91FC916D
:102CB0000190F081E02D682FC8010995CE010E9496
:102CC0002C172196C131D10581F70E94C00F88EEE3
:102CD00093E0DF91CF911F910F910C94720CDF91D3
:102CE000CF911F910F91089504970C943316EDEC3A
:102CF000F5E01382128288EE93E0A0E0B0E08483D6
:102D00009583A683B78384E191E0918380838FEFDD
:102D10009FEF95878487EAEAF5E013821282118695
:102D2000128680E18387108617821586108A17869F
:102D3000128A118A81E0838B148A858B168A22E39A
:102D400031E03183208320E431E03583248327EF91
:102D500039E0309396052093950520E030E83093D4
:102D600094052093930546983E9A47983F9AE0EA47
:102D7000F5E01382128226E231E03183208398E06D
:102D8000918780871582168214828783E7E9F5E0B0
:102D900080E281838283838384838583868308950D
:102DA0008F929F92AF92BF92CF92DF92EF92FF925B
:102DB000CF93DF93EC01688179818A819B816115D2
:102DC00071058105910521F464E279ED8BE597E0C9
:102DD0002DE133EF41E050E00E94421749015A01D2
:102DE0009B01AC01A7EAB1E40E9461176B017C0171
:102DF000ACEEB4EFA50194010E946F17DC01CB018A
:102E00008C0D9D1DAE1DBF1DB7FF03C00197A1090D
:102E1000B04888839983AA83BB83BC01CD019F7787
:102E2000DF91CF91FF90EF90DF90CF90BF90AF9068
:102E30009F908F9008950E94D01608958CE091E0A5
:102E40000E94D016089560930C0170930D01809339
:102E50000E0190930F010895F999FECF92BD81BDA7
:102E6000F89A992780B50895262FF999FECF1FBAB1
:102E700092BD81BD20BD0FB6F894FA9AF99A0FBEA3
:102E800001960895052E97FB1EF400940E94591791
:102E900057FD07D00E94741707FC03D04EF40C9422
:102EA000591750954095309521953F4F4F4F5F4FA3
:102EB000089590958095709561957F4F8F4F9F4FA6
:102EC00008950E949617A59F900DB49F900DA49F02
:102ED000800D911D11240895B7FF0C9461170E9475
:102EE0006117821B930B0895A1E21A2EAA1BBB1B2C
:102EF000FD010DC0AA1FBB1FEE1FFF1FA217B307C6
:102F0000E407F50720F0A21BB30BE40BF50B661FDB
:102F1000771F881F991F1A9469F76095709580959F
:102F200090959B01AC01BD01CF010895A29FB00116
:102F3000B39FC001A39F700D811D1124911DB29FED
:102F4000700D811D1124911D0895EE0FFF1F059036
:102F5000F491E02D099481E090E0F8940C94B0177E
:042F6000F894FFCF13
:102F640000E1000000000000FFFFFFFF010000007F
:102F740000000000C70D480EE80DDD0D2E0EEC0D0F
:102F84000A0E00000000FB09CB07B80AB70A0000CC
:102F940000009D0CCB07B80AB70A3316FCFF0000EB
:102FA400741600C180810000004152445820383911
:102FB4002E3900524F434B2039342E3600524144AF
:082FC400494F204F4646000072
:00000001FF
