:100000000C944C090C9474090C9474090C947409A4
:100010000C9474090C9474090C9474090C9474096C
:100020000C9474090C9474090C94D70E0C94490F19
:100030000C9474090C9474090C9474090C9474094C
:100040000C9474090C9474090C9474090C9474093C
:100050000C9474090C9474090C9474090C94851212
:100060000C9474090C9474090C9474090C9474091C
:100070000C9474090C9474090C9474090C9474090C
:100080000C947D130C9474090C9474090C947409E9
:100090000C9474090C9474090C9474090C947409EC
:1000A0000C9474090C9474090C947409D5F08D1493
:1000B000A1C881CFD9F1AF20001008AA55AA55AA2E
:1000C00055AA55AA55AA55AA55AA5510040A050AB3
:1000D000050A050A050A050A050A050A05100202AD
:1000E00001020102010201020102010201020110EA
:1000F00001010001000100010001000100010001F7
:100100000080090080C0C0C0E0A0A0A0A0D0D8B8E6
:100110006CE4E4E4ECF8F0F0E0C0800080808894C7
:10012000929A94949292948880808080808080803B
:1001300080808080808080808080808080808080BF
:1001400080808080808080808080808080808080AF
:10015000808080808080808080808080808080809F
:10016000808080808080808080840A89CDCACAE9AE
:10017000A9AAA4A0D0D8B86CE4E4E4ECF8F0F0E0CC
:10018000C08000000000000000000000000000002F
:10019000000000000000000000000000000000005F
:1001A000000000000000000000000000000000004F
:1001B000000000000000000000000000000000003F
:1001C000000000000000000000000000000000002F
:1001D000000000000000000000000000000000001F
:1001E000000000000000000000000000000000000F
:1001F00000000000000000000000000000000000FF
:10020000000000000080D0F8FCFCFCF8FCFEFFFFC2
:10021000FFFFFEFCFCFCFCFCFCFCFCFCFCFCFCFC16
:10022000FEFEFEFCFCFCFCF8D080000078FEFFFF28
:10023000FFFFFFFFFFFFFFFFFFFFFFFFFFFFFFFFCE
:10024000FFFFFFFFFFFFFFFFFFFFFFFFFFFFFFFFBE
:10025000FFFFFFFE78003F7F7F7F7F7F7F7F3F1F15
:100260001F1F1F1F3F3F3F3F3F3F3F3F3F3F3F3F1E
:100270001F1F1F1F3F7F7F7F7F7F7F7F3F0000000B
:1002800080D0F8FCFCFCF8FCFEFFFFFFFFFEFCFC4E
:10029000FCFCFCFCFCFCFCFCFCFCFCFEFEFEFCFC98
:1002A000FCFCF8D080000078FEFFFFFFFFFFFFFF9F
:1002B000FFFFFFFFFFFFFFFFFFFFFFFFFFFFFFFF4E
:1002C000FFFFFFFFFFFFFFFFFFFFFFFFFFFFFE78C6
:1002D000003F7F7F7F7F7F7F7F3F1F1F1F1F1F3F4D
:1002E0003F3F3F3F3F3F3F3F3F3F3F1F1F1F1F3F9E
:1002F0007F7F7F7F7F7F7F3F00291700008050280E
:10030000D4544458445A5D5D49554AC45C545444DD
:10031000544454D454544C545A5A4A544C54D428E7
:100320005080000078860964930A2B4929490909FD
:1003300009090B080F086929692969080F080B09C1
:100340000909094929492B0A9366098678003F4023
:1003500050505151454535151515151529292D298B
:10036000292D29292D2929351515151535455551BD
:10037000515050403F000000805028D4544458440D
:100380005A5D5D49554AC45C545444544454D45451
:10039000544C545A5A4A544C54D428508000007833
:1003A000860964930A2B492949090909090B080F91
:1003B000086929692969080F080B090909094929E8
:1003C000492B0A9366098678003F404A48494145CF
:1003D0004535151515151529292D29292D29292DBD
:1003E000292935151515153545454149484A403FD8
:1003F00000524144494F204F464600524F434B2044
:1004000039342E3600415244582038392E390000F4
:1004100000000000000000C020D0D0D0D0D0D0D04C
:1004200020C000C020D0D0D0D0D0D0D0D0D0D0A04C
:1004300040C020D0D0D0D0D0D0D0D0D0D0A040801C
:10044000C020D0D0D0D0D02020D0D0D0D0D020C08C
:1004500000000000F008E41414141414141414140C
:10046000141414141414141414141414141414144C
:10047000141414141414141414141414141414143C
:10048000141414141414141414141414141414FC44
:10049000ECFCECFCECFC3CC3FCFFFF7F037FFFFFAC
:1004A000FCC33CFF00FFFFFFFFFFC3C3FFFFFF7F55
:1004B0009EE000FFFFFFFFFF030303FFFFFFFFFCC2
:1004C0000300FFFFFFFFFF0000FFFFFFFFFF00FF34
:1004D00000000000EFA0AFA0A0A0A0A0A0A0A0A03E
:1004E000A0A0A0A0A0A020E0E0E0E06020A0A0A04C
:1004F00020A0A020A020A0A0A02020A0A0A0A0A07C
:10050000A0A0A0A0A0A0A0A0A0A0A0A0A0A0A0EF9C
:10051000D7EFD7EF3FC3FCFFFFFF7F1E5E1E7FFFBD
:10052000FFFFFCC300FFFFFFFFFF0101FFFFFFFF15
:10053000FE8100FFFFFFFFFFF0F0F0FFFF7F3F4F66
:1005400070601F7F7FFFFFE0E0FFFF7F7F1FE01FE6
:1005500000000000FF070383C1E0F0F0783838386E
:10056000383878F0F0E0C0800103078C888B8B88E6
:100570008A888B888A888B8B8B88888B8A8A8A8AE0
:100580008A8A8A8A8A8A8A8A8A8A8A8A8A8A8AAFA6
:100590005FAF5FAEFE06FAFAFAFAFA7A7AFAFAFA78
:1005A000F6CA327A8EF636DAEA6A2AEAFAF6F68A73
:1005B00072827A86FAFAFA7AFAFAFA867E86FA0667
:1005C000FAFAFAFAFA7A7A7AFAFAF6EA9262820190
:1005D000061E7C00FF38FFFFFFC70100000000007F
:1005E000000001C639C7FFFFFF3800FF0040FEEAE8
:1005F0007E407E6A7E404040404040404040C0C017
:100600004040404040406E6A7E407E687840401ED8
:100610000D0E8542FF00FFAFAFAFEF2828EFAFBF51
:10062000EFD33C00FFAFAFFF003C3C00FFAFAFFF9C
:100630000087F8AFAFFFCFC0CFFFAFAFF8877F0025
:10064000FFAFAFAFFF000000FFAFAFAFFF00FF0095
:1006500000000000FF000103070F1F1E3C3A3A3A5A
:100660003A3A3D1E1F0F07030100008744444444EB
:10067000444444444484040484444444444444443A
:10068000444484040484444444444444444444026C
:10069000010120504FC05F5050505F40405F5050AC
:1006A000505F504E414F485D575456575B4C4F4139
:1006B000585751505C4E424A424E5C505157584038
:1006C0005F5050505352525253504846C956210021
:1006D00000000000FF000000010701000704070000
:1006E00007020700070500000000003F404040519E
:1006F0005F504040403F00003F4040405D55574004
:1007000040403F00003F40404055555F4040400062
:1007100000000000FF00FE01012171F901F97121C3
:100720000101718901F921F901F129F101F911F9A9
:10073000017189C901F9A901010109F90901798149
:100740007901F911F901F9A9010101FE00FF000089
:1007500000000000FF00000000000000000000009A
:10076000000000000000000000FE00A8AAAAAAAA3B
:10077000AAAAAAAAAAAAAAAAAAAAAAAAAAAAAAAAD9
:10078000AAAAAA02E2121202E252E2027252D200B3
:100790000000000007081314141414141414141483
:1007A0001414141414141414141414141414141409
:1007B00014141414141414141414141414141414F9
:1007C000141414141414141414141413080700002B
:1007D000000000001F3C3830282828282828282816
:1007E0002828282828282828203F30323232323240
:1007F00032323232323232323232323232323232D9
:1008000032323234343535343534353435353500DB
:1008100000000000000000000000000000000000D8
:1008200000000000000000000000000000000000C8
:1008300000000000000000000000000000000000B8
:1008400000000000000000000000000000000000A8
:100850000000000000000000000000000000000098
:100860000000000000000000000000000000000088
:100870000000000000000000000000000000000078
:100880000000000000000000000000000000000068
:100890000000000000000000000000000000000058
:1008A0000000000000000000000000000000000048
:1008B0000000000000000000000000000000808038
:1008C0008080808000000000808080808080808028
:1008D0000000000000000000000000000000000018
:1008E0000000000000000000000000000000000008
:1008F00000000000000000000000000000000000F8
:1009000000000000000000000000000000000000E7
:1009100000000000000000000000000000000000D7
:1009200000000000000000000000000000000000C7
:100930000000000000000000000000020A2AA8A336
:100940008F3FFFFFFEF08000FFFFFFFFFFFFFF076D
:1009500000000000000080808080C0C00080000097
:100960000000000000000000000000000000000087
:100970000000000000000000000000000000000077
:100980000000000000000000000000000000000067
:100990000000000000000000000000000000000057
:1009A0000000000000000000000000000000000047
:1009B0000000000000000000000000000000000235
:1009C0000A0A28A3871F7FFCFFFFFFFFFF7F01F0BC
:1009D000F8FCFE06A30B07073F0F230802000000E8
:1009E0000000000000000000000000000000000007
:1009F00000000000000000000000000000000000F7
:100A000000000000000000000000000000000000E6
:100A100000000000000000000000000000000000D6
:100A200000000000000000000000000000000000C6
:100A300000000000000000000000000000000000B6
:100A400000000000020A28A1871F7FFF1F0080F11D
:100A5000F3F3636322B21E202800000000000000B0
:100A60000000000000000000000000000000000086
:100A70000000000000000000000000000000000076
:100A80000000000000000000000000000000000066
:100A90000000000000000000000000000000000056
:100AA0000000000000000000000000000000000046
:100AB0000000000000000000000000000000000036
:100AC0000000080808C808884A8A484808884989F0
:100AD00008CA480948C84808080800000000000083
:100AE0000000000000000000000000000000000006
:100AF00000000000000000000000000000000000F6
:100B000000000000000000000000000000000000E5
:100B100000000000000000000000000000000000D5
:100B200000000000000000000000000000000000C5
:100B300000000000000000000000000000000000B5
:100B40000000000000000300000203030001020196
:100B5000000301000003000000000000000000008E
:100B60000000000000000000000000000000000085
:100B70000000000000000000000000000000000075
:100B80000000000000000000000000000000000065
:100B90000000000000000000000000000000000055
:100BA0000000000000000000000000000000000045
:100BB0000000000000000000000000000000000035
:100BC0000000000000000000000000000000000025
:100BD0000000000000000000000000000000000015
:100BE0000000000000000000000000000000000005
:100BF00000000000000000000000000000000000F5
:100C000000000000000000000000000000000008DC
:100C10000B000202020100090400000102020000B0
:100C20000524001001052401010104240206052405
:100C30000600010705810310004009040100020AB3
:100C40000000000705020240000007058302400083
:100C5000000403090412010002EF0201404123369F
:100C60008000010102030141726475696E6F204CBE
:100C70004C430041726475696E6F204C656F6E6104
:100C800072646F0004083E09093E3F25251A1E21A3
:100C900021123F21211E3F2525213F0505011E214F
:100CA000293A3F04043F213F21001021211F3F0426
:100CB0000A313F2020203F02023F3F02043F1E2115
:100CC000211E3F0909061E21112E3F090936222542
:100CD0002519013F01011F20201F0F10201F3F1069
:100CE000103F3B04043B03043807312D2321102A15
:100CF0002A3C3F2424181C2222141824243F1C2A96
:100D00002A2C043E05014C52523E3F040438243D37
:100D100020004040443D3F081422213F20003E0473
:100D2000043E3E04023C1C22221C7E22221C1C2269
:100D3000227E3E040204242A2A12021F22201E20A0
:100D4000201E0E10201E3E10103E360808364E5053
:100D5000503E322A26221E29251E223F20003229FB
:100D600029261221251A0C0A3F08172525191E25A8
:100D70002518013905031A25251A0629291E002FD1
:100D80000000002000000229050200040400010206
:100D900004081020408000000000003E5B4F5B3ED6
:100DA0003E6B4F6B3E1C3E7C3E1C183C7E3C181C30
:100DB000577D571C1C5E7F5E1C00183C1800FFE727
:100DC000C3E7FF0018241800FFE7DBE7FF30483ACD
:100DD000060E2629792926407F050507407F05252F
:100DE0003F5A3CE73C5A7F3E1C1C08081C1C3E7FB7
:100DF00014227F22145F5F005F5F06097F017F007E
:100E00006689956A606060606094A2FFA29408049D
:100E10007E040810207E201008082A1C08081C2ABE
:100E200008081E101010100C1E0C1E0C30383E3816
:100E300030060E3E0E06000000000000005F0000BD
:100E40000007000700147F147F14242A7F2A12232E
:100E50001308646236495620500008070300001C3E
:100E60002241000041221C002A1C7F1C2A08083E47
:100E7000080800807030000808080808000060605A
:100E80000020100804023E5149453E00427F4000C8
:100E900072494949462141494D331814127F1027A0
:100EA000454545393C4A49493141211109073649EF
:100EB000494936464949291E0000140000004034C3
:100EC00000000008142241141414141400412214C8
:100ED0000802015909063E415D594E7C1211127CEF
:100EE0007F494949363E414141227F4141413E7F50
:100EF000494949417F090909013E414151737F0830
:100F000008087F00417F41002040413F017F0814D5
:100F100022417F404040407F021C027F7F04081036
:100F20007F3E4141413E7F090909063E4151215E14
:100F30007F09192946264949493203017F01033FA8
:100F40004040403F1F2040201F3F4038403F631437
:100F500008146303047804036159494D43007F4139
:100F600041410204081020004141417F0402010276
:100F7000044040404040000307080020545478409B
:100F80007F284444383844444428384444287F382F
:100F90005454541800087E090218A4A49C787F08B1
:100FA00004047800447D40002040403D007F10282C
:100FB000440000417F40007C047804787C080404ED
:100FC000783844444438FC1824241818242418FC85
:100FD0007C08040408485454542404043F44243C2A
:100FE0004040207C1C2040201C3C4030403C442899
:100FF0001028444C9090907C4464544C4400083633
:1010000041000000770000004136080002010204A0
:10101000023C2623263C1EA1A161123A4040207AC0
:10102000385454555921555579412154547841210A
:101030005554784020545579400C1E52721239553F
:10104000555559395454545939555454580000453C
:101050007C410002457D420001457C40F029242965
:10106000F0F0282528F07C545545002054547C5439
:101070007C0A097F4932494949323248484832326C
:101080004A4848303A4141217A3A42402078009D0E
:10109000A0A07D39444444393D4040403D3C24FFBC
:1010A0002424487E4943662B2FFC2F2BFF0929F669
:1010B00020C0887E090320545479410000447D41BA
:1010C0003048484A32384040227A007A0A0A727D13
:1010D0000D19317D2629292F28262929292630482E
:1010E0004D4020380808080808080808382F10C89C
:1010F000ACBA2F102834FA00007B000008142A1420
:101100002222142A14089500220095AA005500AA4C
:10111000AA55AA55AA000000FF00101010FF0014E5
:101120001414FF001010FF00FF1010F010F0141442
:1011300014FC001414F700FF0000FF00FF1414F467
:1011400004FC141417101F10101F101F1414141F68
:1011500000101010F0000000001F101010101F10E1
:10116000101010F010000000FF10101010101010E0
:101170001010FF10000000FF140000FF00FF00002F
:101180001F10170000FC04F414141710171414F4A3
:1011900004F40000FF00F714141414141414F700DE
:1011A000F7141414171410101F101F141414F4142F
:1011B0001010F010F000001F101F0000001F14009E
:1011C0000000FC140000F010F01010FF10FF1414C9
:1011D00014FF141010101F00000000F010FFFFFF9C
:1011E000FFFFF0F0F0F0F0FFFFFF0000000000FF55
:1011F000FF0F0F0F0F0F38444438447C2A2A3E1447
:101200007E02020606027E027E0263554941633871
:1012100044443C04407E201E2006027E020299A522
:10122000E7A5991C2A492A1C4C7201724C304A4D80
:101230004D303048784830BC625A463D3E494949B5
:10124000007E0101017E2A2A2A2A2A44445F44445E
:1012500040514A444040444A51400000FF0103E0ED
:1012600080FF000008086B6B083612362436060F24
:10127000090F06000018180000001010003040FF91
:101280000101001F01011E00191D1712003C3C3C0A
:101290003C0000000000B61911241FBECFEFDAE0B9
:1012A000DEBFCDBF11E0A0E0B1E0E2EDF6E302C0A9
:1012B00005900D92A837B107D9F726E0A8E7B1E06D
:1012C00001C01D92A333B207E1F719E0CCE4D9E0E5
:1012D00004C02197FE010E945C1BCB34D107C9F7E3
:1012E0000E9417150C94671B0C9400009C01240F9E
:1012F000311D1216130684F5803891056CF5FC013A
:1013000097FF02C0E0E0F0E02138310514F020E85A
:1013100030E02E1BAB014770552781E090E001C003
:10132000880F4A95EAF7809577FF02C0695F7F4F83
:1013300093E0759567959A95E1F77695762F6627F0
:1013400077956795E60FF71FE357FE4F215020F082
:10135000908198239193FACF089520E030E0D9014D
:10136000A357BE4F40E050E0FA01E20FF31FE80F31
:10137000F91FE4916C91E62BED934F5F5F4F40387E
:10138000510591F720583F4F211544E0340739F7B4
:10139000089580918C018F3F81F034F48C3F59F097
:1013A0008E3FB9F48FEF11C0813071F04CF0823074
:1013B00081F484E00AC08EEF08C010928C0107C04F
:1013C00081E080938C01089582E080938C0181E01C
:1013D000089580E008950F931F93CF93DF938C01BE
:1013E000C0E0D0E0F801EC0FFD1F6491662371F0BE
:1013F000E091A205F091A3050190F081E02D82EA31
:1014000095E00995892B11F02196ECCFCE01DF9163
:10141000CF911F910F9108955F926F927F928F925B
:101420009F92AF92BF92CF92DF92EF92FF920F9373
:101430001F93CF93DF93EC018B01CB018C1B9D0B92
:1014400097FF03C091958195910955245394039773
:1014500054F0512C0C171D076CF07E018CE190E0CC
:10146000C9E1D0E00DC0C8010CE110E039E1E32E84
:10147000F12C06C078018E0189E190E0CCE1D0E04A
:1014800038016E187F085C01AC1ABD0AB7FE03C0B4
:10149000B194A194B108630177FE03C02FEFC21A83
:1014A000D20AD594C794C817D90714F08FEF01C09A
:1014B00081E0882E880F99080E151F05C4F021E0E1
:1014C000552019F0A701BE0102C0AE01B70180EBA3
:1014D00095E00E94EA13CA18DB08D7FE04C0C80DC5
:1014E000D91DC60CD71C8FEFE81AF80AE5CFDF919B
:1014F000CF911F910F91FF90EF90DF90CF90BF9011
:10150000AF909F908F907F906F905F9008956F92B3
:101510007F928F929F92AF92BF92CF92DF92EF9283
:10152000FF920F931F93CF93DF9300D000D0CDB7DE
:10153000DEB7DC014B017E2D4115510509F4EEC1EA
:10154000FA016491319694915A01F2E0AF0EB11C08
:10155000C62ED12C222309F1492F46954695469552
:10156000E42FF0E041E050E0892F877011F440E073
:1015700050E04E0F5F1FC49EF001C59EF00DD49E3B
:10158000F00D1124733011F4EE0FFF1F2E9FA001F8
:101590002F9F500D1124A40EB51E7F3F31F401156D
:1015A000110511F071E001C072E0AD014C0D5D1D3F
:1015B000141615060CF0B2C1A038B1050CF0AEC17E
:1015C0009401290F311D121613060CF0A7C180E4F7
:1015D000881691040CF0A2C1A114B10409F49EC1B3
:1015E000382D3770F40197FC379623E0F595E79591
:1015F0002A95E1F72E2F97FE04C0332311F02FEF29
:101600002E0FB7FF05C0EE27FF27EA1BFB0B02C01A
:10161000E0E0F0E04038510524F050E85A1B952EE8
:1016200001C0962E9E1AE22E022E000CFF082F3FBC
:101630001CF45E2D509501C050E041E0892F877069
:1016400009F440E0969596959695490FE40EF11CA5
:1016500099E0E916F10414F048E0421BF42EF51A63
:10166000250F40E82403A00DB11D1124AE0FBF1FAC
:10167000569FE00DF11D1124A5014E0F5F1F81E063
:1016800090E05C01032E02C0AA0CBB1C0A94E2F796
:10169000733009F400C1A0F4713009F4B3C07230A2
:1016A00009F03CC18FEF8A9DB0018B9D700D112414
:1016B000609570957C836B837C806F2C620E29C053
:1016C0007A3F29F07B3F09F029C1F20E87C0F20E64
:1016D00051C0FA01E00FF11FE491EA9D7001EB9D0A
:1016E000F00C1124FA82E98227FD07C0FC01F0808A
:1016F000EF2DE623EE2AFC01E082311113C00F5FCB
:101700001F4F0196091528F32F5F4C0D5D1DA05842
:10171000BF4F261509F402C1CD0183579E4F00E04B
:1017200010E0F0CF27305CF7FC01E058FF4FE0807D
:10173000E7208A80E828E082E2CFFA01E60FF71F6F
:10174000E491EA9D8001EB9D100D11241A83098319
:1017500027FD04C0FC011081012B0083311113C04F
:101760006F5F7F4F0196691540F32F5F4C0D5D1D34
:10177000A058BF4F2F1509F4D1C0CD0183579E4FFC
:1017800060E070E0F0CF27305CF78C0100581F4F0D
:10179000F801E080FA81EF2AF801E082E1CFFA0156
:1017A000E00FF11FE491EA9DC001EB9D900D112423
:1017B0009A83898327FD05C08095FB019081892349
:1017C0008083311114C00F5F1F4F6F5F7F4F09156A
:1017D00030F32F5F4C0D5D1DA058BF4F2F1509F43E
:1017E0009DC0BD0163577E4F00E010E0F0CF273071
:1017F00054F7FB01E058FF4F8A818095908189233F
:101800008083E1CF0E0F1F1F8F2C820E281509F445
:1018100085C0CD0183579E4F7C0160E070E0691563
:1018200090F5F801E60FF71FE491EA9DC001EB9DEA
:10183000900D1124809590959C838B83FA01E60F7F
:10184000F71FE491EA9D3001EB9D700C11247A8220
:10185000698227FD05C0F70190818923682A60828B
:10186000332359F027304CF4F701E058FF4F9081B3
:101870008C8189239A81892B80836F5F7F4FFFEF53
:10188000EF1AFF0ACCCF2F5F4C0D5D1D0C0D1D1DF7
:10189000A058BF4FBBCF892D90E0E40FF51FA35791
:1018A000BE4F60E870E0681B790BC81AD90A860140
:1018B000000F111F592D4F2D792CE32ECF93DF935D
:1018C000ED01EF96EF9622968590C590EE2059F0A7
:1018D0008A9C4001CA9C600127302CF4F880D09487
:1018E000FD20F928F99222233AF0FC90C094FC20C4
:1018F000F828FD920C947D0C11965A9529F74A957B
:1019000051F0572D23951124E00FF11DA60FB11DA5
:10191000C60FD11DD9CFDF91CF9111240F900F9019
:101920000F900F90DF91CF911F910F91FF90EF904B
:10193000DF90CF90BF90AF909F908F907F906F90EF
:101940000895EDE8F1E080E0A0E0B8E000800EBC92
:101950008111012C1197A0FDFDCF0192B9F70DB4B3
:101960000895FC0180918901811103C08FEF9FEFE1
:1019700008959FB7F89482E08093E9002091F200E7
:1019800030E01216130614F421E030E02115310581
:1019900059F0289884E6809388018091F100808333
:1019A0008091F200882319F09FBFC90108958BE64A
:1019B0008093E800F9CF2FB7F89483E08093E90093
:1019C0009091E800892F807295FF04C09091F200F9
:1019D00080E4891B2FBF08958F929F92AF92BF9290
:1019E000CF92DF92EF92FF920F931F93CF93DF93EB
:1019F0005C016B017A0180910801882309F45BC0C6
:101A000080918901882309F456C08091870180FF65
:101A100005C08091E00082608093E000E70110E063
:101A20000AEF83E0882E9AE3992E2097D9F10E943D
:101A3000DB0C81110AC0015009F43DC061E070E087
:101A400080E090E00E944B12F0CF282F30E0C217C8
:101A5000D3070CF48C2F4FB7F8948092E900909143
:101A6000E80095FF1DC0282F30E0C21BD30BF60104
:101A7000982F915020F081918093F100FACFC20EFF
:101A8000D31E112319F09092E80009C08091E8005C
:101A900085FD06C09092E80011E0209709F010E063
:101AA0004FBFC3CF1111C3CF5D9884E680938601E9
:101AB0001E141F0444F081E090E0F50193838283BB
:101AC00080E090E001C0C701DF91CF911F910F919D
:101AD000FF90EF90DF90CF90BF90AF909F908F904E
:101AE00008958091C70581110DC082E08093C305E0
:101AF00084E08093C4051092C6051092C50581E06C
:101B00008093C70583EC95E00895CF93DF931F92F0
:101B1000CDB7DEB76983DC01ED91FC910280F381E2
:101B2000E02D41E050E0BE016F5F7F4F09950F90BF
:101B3000DF91CF91089583E08093E9008091F200D6
:101B4000882319F08AE38093E8000895FC018485D6
:101B5000958597FD0BC09FB7F89482E08093E900CC
:101B60008091F2009FBF90E0019608959FB7F8948E
:101B700082E08093E9008091F2009FBF90E0089599
:101B8000409123065091240620912106309122068F
:101B900042175307B4F49091E8009570E1F39091E7
:101BA000E80092FD19C08093F10080912306909186
:101BB000240601968F739927892B19F48EEF809351
:101BC000E8008091230690912406019690932406C4
:101BD0008093230681E0089580E00895CF92DF92FC
:101BE000EF92FF920F931F93CF93DF931F92CDB786
:101BF000DEB7182F062FE42E862F880F8E5F99836D
:101C00000E94C00D83E00E94C00DF12EC12E99816B
:101C1000D92E8C2D8F19801798F4F601E7FE02C09B
:101C2000849101C080810E94C00D182F80E00E9425
:101C3000C00D8123FFEFCF1ADF0A8111EACF01C067
:101C400081E00F90DF91CF911F910F91FF90EF9066
:101C5000DF90CF900895DF92EF92FF920F931F9342
:101C6000CF93DF93D82E8A017B01E40EF51EEB01A2
:101C7000CE15DF0571F0D7FE03C0FE01849101C0CF
:101C800088810E94C00D21968111F2CF8FEF9FEFC6
:101C900001C0C801DF91CF911F910F91FF90EF908C
:101CA000DF900895615030F02091F100FC01208315
:101CB0000196F8CF289884E68093880108950E94C1
:101CC000DB0C90E00895CF93DF931F92CDB7DEB782
:101CD000FC018485958597FD05C02FEF3FEF358783
:101CE00024870BC0CE0101960E94B10C019719F414
:101CF000898190E002C08FEF9FEF0F90DF91CF912D
:101D000008950F931F93CF93DF931F92CDB7DEB744
:101D10008C01FC018485958597FF0EC0CE0101964C
:101D20000E94B10C019719F4298130E002C02FEF15
:101D30003FEFF80135872487F801848595850F905A
:101D4000DF91CF911F910F9108950F931F93CF9320
:101D5000DF931F92CDB7DEB782E0898342E450E083
:101D60006FE07CE080E80E942B0E0E94710DDC0188
:101D700012960D911C9113970115110569F0D80168
:101D8000ED91FC910280F381E02DBE016F5F7F4FEA
:101D9000C801099597FF07C089810F90DF91CF9106
:101DA0001F910F910895F80100851185E5CF1F92CD
:101DB0000F920FB60F9211248F939F938091E100A1
:101DC0009091E100937F9093E10083FF0FC0109208
:101DD000E90091E09093EB001092EC0092E3909375
:101DE000ED001092890198E09093F00082FF20C0EE
:101DF00093E09093E9009091F200992319F09AE30F
:101E00009093E80090918601992339F09091860192
:101E1000915090938601992389F19091880199239B
:101E200039F090918801915090938801992341F164
:101E300084FF10C08091E2008E7E81608093E2007A
:101E40008091E1008F7E8093E100809187018E7EFA
:101E5000806111C080FF16C08091E2008E7E80619B
:101E60008093E2008091E1008E7E8093E10080917A
:101E700087018E7E81608093870104C05D9ACDCFFB
:101E8000289AD6CF9F918F910F900FBE0F901F90E1
:101E900018951F920F920FB60F921124CF92DF92D6
:101EA000EF92FF920F931F932F933F934F935F9364
:101EB0006F937F938F939F93AF93BF93EF93FF9312
:101EC000CF93DF93CDB7DEB76C97DEBFCDBF109257
:101ED000E9008091E80083FFEDC168E0CE014596FE
:101EE0000E94520E82EF8093E8008D8987FF05C023
:101EF0009091E80090FFFCCF03C09EEF9093E80024
:101F0000982F907609F0C6C09E892F89188D91115F
:101F10000CC0803829F4809120068093F10002C023
:101F20001092F1001092F10048C1422F50E0512B65
:101F3000913051F4811141C14130510509F03DC149
:101F4000809120068D7F0BC0933061F4811135C1E3
:101F50004130510509F031C18091200682608093A3
:101F600020062BC1953041F48091E80080FFFCCF22
:101F700020682093E30021C1963009F05FC0EB8C0C
:101F8000FC8C1092E9001092240610922306123065
:101F900091F510922206109221060E94A50E99E05A
:101FA000BE016F5F7F4FDB01E92F1D92EA95E9F7D4
:101FB00099831A8391E09E8390EA98879AEF998794
:101FC0002091230630912406275F3F4F3C832B83CB
:101FD0008D831092E9001092240610922306F0924D
:101FE0002206E092210649E050E080E00E942B0E9C
:101FF0000E94A50EE2C0F0922206E09221060E9405
:10200000710DDC011296ED90FC901397E114F10430
:1020100009F4C0C0D701ED91FC910480F581E02D59
:10202000BE016B5E7F4FC7010995009719F00CF058
:10203000C4C0C7C0F701E084F184E8CF973009F449
:10204000C0C0983021F481E08093F100B6C099308F
:1020500009F0B3C0837009F0B4C0E1E7F1E081E0BA
:1020600021E036E39081992361F08093E900209389
:10207000EB0091919093EC003093ED008F5F8730EF
:1020800089F78EE78093EA001092EA008F898093A7
:10209000890193C08B8D9C8D1092E90010922406CB
:1020A000109223069093220680932106898D811138
:1020B00056C08E899D89913A59F4813209F081C0C8
:1020C00047E050E061E071E080E00E942B0E75C0B7
:1020D000913209F076C0833289F4888D90E0982F90
:1020E00088272F89822BA0E0B0E08093090190938C
:1020F0000A01A0930B01B0930C015FC0803269F418
:102100008091E80082FFFCCF67E081E091E00E94CF
:10211000520E8BEF8093E80006C0823209F04DC06A
:102120008F898093080180911F06882319F0EEEFB4
:10213000FAE002C0E0E0F8E0809101019091020134
:10214000A0910301B0910401803B9440A105B10529
:1021500009F07BC08091080180FF93C076C00E9487
:10216000710DDC0112960D911C911397011511054B
:1021700041F1D801ED91FC910190F081E02DBE017B
:102180006B5E7F4FC8010995811117C0F80100856A
:102190001185ECCF113009F44EC0133091F48F89C2
:1021A000882309F445C0823081F440E860E183E788
:1021B0009CE00E94EE0D882321F08EEF8093E800D2
:1021C00079C081E28093EB0075C0813029F440E84A
:1021D0006BE087E69CE0EDCF833099F70E94710DAC
:1021E000DC011296ED90FC9013978E010F5F1F4F4C
:1021F0006801E114F10479F0D701ED91FC910680BA
:10220000F781E02DB801C7010995080F111DF701ED
:10221000E084F184EECFD8011C92F60101900020F9
:10222000E9F73197BF016C197D0940E0C601C1CFC4
:1022300061E57CE002C065E57CE06115710509F2AD
:10224000FB01449150E080E840CF0FB6F894A89588
:1022500080916000886180936000109260000FBEE2
:10226000A895EE3F2AE0F20739F08091FE0A90919E
:10227000FF0A91838083A1CF1092FF0A1092FE0A79
:102280009CCFEE3F8AE0F80731F0808191819093F6
:10229000FF0A8093FE0A87E797E7918380839BE09C
:1022A00088E10FB6F894A895809360000FBE9093D4
:1022B000600083CF6C960FB6F894DEBF0FBECDBF23
:1022C000DF91CF91FF91EF91BF91AF919F918F914E
:1022D0007F916F915F914F913F912F911F910F913E
:1022E000FF90EF90DF90CF900F900FBE0F901F9058
:1022F0001895CF92DF92EF92FF920F931F93CF9397
:10230000DF936C017A018B01C0E0D0E0CE15DF05D0
:1023100089F0D8016D918D01D601ED91FC9101906C
:10232000F081E02DC6010995892B11F47E0102C0D0
:102330002196ECCFC701DF91CF911F910F91FF90B4
:10234000EF90DF90CF90089580918101E0917F011F
:10235000F0918001882349F0CF010296909380018B
:1023600080937F01859194910895CF010296909377
:10237000800180937F01808191810895809178010F
:1023800008950895089580E090E008950E94621BEA
:10239000EF920F931F93CF93DF93FC016A3039F4D0
:1023A0008581848396818185890F868347C0848156
:1023B0006E3719F48D5F848341C0262FEF0166814B
:1023C0006F5F2A334CF42033C4F42D32C1F02E3227
:1023D00081F0213241F515C02B352CF421345CF409
:1023E0002F3339F120C09FE9920F9A31E0F427543E
:1023F00009C02FE307C0215405C02C5F03C021E4AE
:1024000001C02EE33F81062E000C770B082E000C36
:10241000990B313081F44AEFE42E00E010E044E8FB
:102420005CE00E94870A88858C5F9C81890F8C8381
:1024300005C020E4E7CF3BEFE32EEFCF81E090E053
:10244000DF91CF911F910F91EF9008953FB7F894CE
:1024500080912F0690913006A0913106B0913206FE
:1024600026B5A89B05C02F3F19F00196A11DB11DEF
:102470003FBFBA2FA92F982F8827820F911DA11D2A
:10248000B11DBC01CD0142E0660F771F881F991F67
:102490004A95D1F708958F929F92AF92BF92CF92B3
:1024A000DF92EF92FF926B017C010E9426124B019A
:1024B0005C01C114D104E104F104F1F00E94261280
:1024C000DC01CB0188199909AA09BB09883E934010
:1024D000A105B10570F321E0C21AD108E108F108A5
:1024E00088EE880E83E0981EA11CB11CC114D10493
:1024F000E104F10419F7DDCFFF90EF90DF90CF906A
:10250000BF90AF909F908F9008951F920F920FB63B
:102510000F9211242F933F938F939F93AF93BF9369
:102520008091790190917A01A0917B01B0917C0119
:1025300030912E0623E0230F2D3720F40196A11DA4
:10254000B11D05C026E8230F0296A11DB11D2093E1
:102550002E068093790190937A01A0937B01B0932A
:102560007C0180912F0690913006A0913106B091A8
:1025700032060196A11DB11D80932F06909330065F
:10258000A0933106B0933206BF91AF919F918F9186
:102590003F912F910F900FBE0F901F901895CF92E3
:1025A000DF92EF92FF920F931F93CF93DF930E94DE
:1025B000A411811520E8920761F4809171008D7F4C
:1025C00080937100109291004698479810922706C8
:1025D0008BC021E020932706813020E8920751F438
:1025E00080917D0190917E019093800180937F0185
:1025F0000E94A41197FD05C020912606222309F40C
:102600003FC02091250621113BC021E020932806E0
:10261000EC01DF77209769F481E0809329064698E2
:102620003FE9C32E3FE0D32EE12CF12CCAEFD0E0DE
:1026300014C08E0120E030E060E472E48FE090E0AE
:10264000A90198010E94C51A69017A0181E0C81A9E
:10265000D108E108F10810922906E0919B05F0915C
:102660009C050995811103C081E080932906809122
:1026700028068823B9F180912906811133C003C04F
:1026800010922806C5CF46992DC0479A0E94A411E2
:10269000009771F09C01DE010E94191BDC01CB0147
:1026A00029E0B595A795979587952A95D1F703C009
:1026B0008FEF9FEFDC01109290002AE020939100B1
:1026C000D0929900C092980080932A0690932B068E
:1026D000A0932C06B0932D068091710082608093A8
:1026E000710002C04798D2CFDF91CF911F910F9117
:1026F000FF90EF90DF90CF9008951F920F920FB64A
:102700000F9211242F933F934F935F936F937F9377
:102710008F939F93AF93BF93EF93FF9380912A067C
:1027200090912B06A0912C06B0912D06892B8A2B17
:102730008B2B81F18091290681110BC098B180E427
:10274000892788B980912806882319F088B1805894
:1027500088B980912A0690912B06A0912C06B09101
:102760002D06181619061A061B06B4F480912A06BF
:1027700090912B06A0912C06B0912D060197A109EE
:10278000B10980932A0690932B06A0932C06B09350
:102790002D0602C00E94CF12FF91EF91BF91AF9121
:1027A0009F918F917F916F915F914F913F912F9169
:1027B0000F900FBE0F901F901895BC0180E090E025
:1027C0000C944B128FB18095807F669B88601C9B18
:1027D0008460089560387105D0F440345105B8F430
:1027E000EEE8FDE080E1849FD001A0781124A60FDF
:1027F0004770E40FF11D8491A357BE4F222319F0B7
:102800006C91862B03C080956C9186238C930895E0
:102810002F923F924F925F926F927F928F929F92F0
:10282000AF92BF92CF92DF92EF92FF920F931F93DE
:10283000CF93DF93CDB7DEB729970FB6F894DEBFFD
:102840000FBECDBFFC016A3069F425898189928968
:1028500038E0239F800D911D1124928B818B108A6B
:102860001786AAC06D3009F4A7C099878887F588B4
:10287000348823886188728807851089003811059B
:10288000C4F0A885B98555962C915597422F50E0F4
:102890001F968D919C915097B6E02B9F800D911DB6
:1028A0001124E885F985908B8787268921116EC0D0
:1028B00083C0F0E46F16710424F7C80125E0F29E8E
:1028C000800D911D112418161906DCF68F2D90E04D
:1028D0009C838B83C301A8E0FA9E800D911D112477
:1028E0001816190674F6B5E06B9FB0011124FB01B0
:1028F000EA56F24FFA83E98330E088859985049699
:102900009E838D83E981FA81E490353009F4E12CCE
:10291000430188E0482EE0FC02C0532C01C0522C39
:1029200051100BC0321009C0E6944A948B819C81EF
:10293000880E991E4110EFCF1BC068018C2D801BA3
:102940008F1590F754018A2D88198F1568F4252D5D
:10295000A501B6018D819E813F830E94EA139FEFFE
:10296000A91AB90A3F81EFCFAFEFCA1ADA0AE6CF48
:102970003F5FEB81FC810E0F1F1F89819A810196B9
:102980009A838983363009F0BDCF7BCF6AEF640329
:102990009001659F300D112420583F4F28173907AB
:1029A0005CF4A885B985ED91FC9111970190F081B7
:1029B000E02D6AE0CD01099581E090E029960FB6FF
:1029C000F894DEBF0FBECDBFDF91CF911F910F9165
:1029D000FF90EF90DF90CF90BF90AF909F908F903F
:1029E0007F906F905F904F903F902F900895EF925F
:1029F000FF920F931F93CF93DF931F92CDB7DEB754
:102A00007C01FC0100811181C80169830E94AF1A19
:102A10006981681719F0C8010E94B71AC7010F90A1
:102A2000DF91CF911F910F91FF90EF900895CF9379
:102A3000DF93CDB7DEB7AE970FB6F894DEBF0FBE0B
:102A4000CDBF789484B5826084BD84B5816084BD37
:102A500085B5826085BD85B5816085BD80916E003C
:102A6000816080936E00109281008091810082606D
:102A700080938100809181008160809381008091AA
:102A800080008160809380008091910082608093BB
:102A900091008091910081608093910080919000DD
:102AA0008160809390008091C10084608093C10018
:102AB0008091C10082608093C1008091C1008160DB
:102AC0008093C1008091C30081608093C300809196
:102AD000C00082608093C0008091C20081608093BA
:102AE000C20080917A00846080937A0080917A009D
:102AF000826080937A0080917A00816080937A006E
:102B000080917A00806880937A00109289011092F7
:102B10002006109287018091D70081608093D700B2
:102B200080EA8093D80089B5806189BD89B58260CB
:102B300089BD09B400FEFDCF61E070E080E090E067
:102B40000E944B128091D8008F7C80618093D800C6
:102B50008091E000807F8093E0008091E1008E7E94
:102B60008093E1008DE08093E200559A209AEEEF89
:102B7000FFE7859194918B3F9C4D19F481E0809300
:102B80001F0681EC80937C0085B1806F85B984B18C
:102B9000877E84B984B1876E84B95E9A5F988AB162
:102BA000806D8AB9769A6E9881B3806F81BB89985F
:102BB00080B38D7080BB80E58CBD81E08DBD85E0EC
:102BC00090E00E94DD135F9A85E090E00E94DD13A3
:102BD0005E985C98ECEAF0E08DE08E0F94919EBDDB
:102BE00000000DB407FEFDCF31968E13F7CF5C9A2F
:102BF00081E8809364008091650081608093650026
:102C00000E94E21387FF15C05C9885EA8EBD000024
:102C10000DB407FEFDCF5C9A2E982F982D988091C9
:102C2000640080628093640081E083BF889513BE56
:102C3000FCCF02E010E00E94E21382FF40C02D981A
:102C40000E94E21384788438C1F00E94E2138471F8
:102C5000843181F52D9A88EC90E00E94DD132E9846
:102C60001A83098360E0CE0101960E94F71484EF75
:102C700091E00E94DD132E9A18C02D9A88EC90E006
:102C80000E94DD132F981A8309836FEFCE010196FE
:102C90000E94F71484EF91E00E94DD132F9A0E94A6
:102CA000E21384788438D9F3D0CF0E94E213847180
:102CB0008431D9F388EC90E00E94DD13BCCF2D9ACB
:102CC00082E090E00E94AF1A882331F03E9A3F9A4A
:102CD00081E08093780104C0109278013E983F987B
:102CE000809164008E7F8093640080917A0080647C
:102CF00080937A0080917A0086FDFCCF0091780065
:102D0000109179000E94261220E030E098011127EE
:102D10000027600F711F821F931F611571058105C8
:102D2000910511F00E94A61A809164008160809341
:102D3000640080E18093B70510929F0586E790E0DC
:102D40009A83898360E0CE0101960E94F7148FB7C1
:102D5000F8944091790150917A0160917B017091D2
:102D60007C018FBF8091B805942F981B8091B90585
:102D7000882329F09093BA051092B905C3C2209117
:102D8000B705921748F49F5F921708F0BBC281E025
:102D900083BF889513BEB6C291E09093B905409366
:102DA000B8052091B3053091B4052F5F3F4F3093A4
:102DB000B4052093B305EDE8F1E081118FEF002415
:102DC00081938193819381930394D1F71092BE05EF
:102DD0001092BD051092BC051092BB058091B505FF
:102DE0008093B6050E94E2138093B50580919F05FC
:102DF000813061F120F0823009F403C181C28FE09B
:102E000098E00E94AD09E12CF12C00E8C02ED12CF5
:102E100010918501412FB70180E090E00E94760972
:102E2000B7016F5F7F4F412FC601811B91090E943F
:102E3000760942E0E40EF11C80E4E816F10441F763
:102E400017FD68C21E5F109385015AC28FE094E09F
:102E50000E94AD09E12CF12C10E8C12ED12C10916B
:102E60008501412FB70180E090E00E947609B7010B
:102E70006F5F7F4F412FC601811B91090E94760928
:102E800092E0E90EF11C20E4E216F10441F711236F
:102E900019F01450109385018AE48093A70580935C
:102EA000A60585E08093A80580918401811109C061
:102EB00085E094E00E94EB0967E670E087E690E029
:102EC0000AC0813059F48BEF93E00E94EB0961E76F
:102ED00070E081E790E00E940C0A06C0823021F485
:102EE00081EF93E00E94EB098091B60585FD3EC01D
:102EF0008091B50585FF3AC0809184018823B1F1A6
:102F0000815080938401809171008D7F8093710046
:102F1000109281018DE895E09093800180937F016C
:102F200090937E0180937D0183E890E090938E05DD
:102F300080938D0582E390E09093900580938F05B8
:102F400029E430E030939205209391059093940505
:102F50008093930529E230E0309396052093950500
:102F600090939805809397050E94CF128091B605A3
:102F700086FD3EC08091B50586FF3AC080918401F0
:102F80008230B0F58F5F80938401809171008D7FD6
:102F900080937100109281018DE895E090938001FB
:102FA00080937F0190937E0180937D0183E890E080
:102FB00090938E0580938D0582E390E09093900529
:102FC00080938F0529E430E030939205209391059A
:102FD000909394058093930529E230E03093960511
:102FE0002093950590939805809397050E94CF12A2
:102FF0008091B60583FD84C18091B50583FF80C1B2
:1030000095C185E0E1E1F1E0DE01999601900D9234
:103010008A95E1F720918C01822F022E000C990BEA
:1030200097FF03C0919581959109FE01E80FF11D6D
:1030300087FDFA959091830181A5981318C0121607
:1030400014F09FEF01C091E08091A005890F8530B9
:1030500038F091E02091A105211190E09093A10515
:1030600065E00E94281B9093A00510928301809137
:1030700083018F5F80938301B2E0EB2E00E010E0CC
:1030800020E041E051E060E070E080E090E00E94EC
:10309000870A88E2E6E1F1E0DE01119601900D92E7
:1030A0008A95E1F72090A00548E0249E10011124A4
:1030B000C12CD12CF601E20DF31D81E090E08C0FC4
:1030C0009D1FE80FF91F308191812091A1058C2D62
:1030D00081708217A9F09FEFC91AD90A27E0C2169A
:1030E000D10441F709E010E0612C712CE0E0F0E040
:1030F00080E090E020E030E047E3C42ED12C81C096
:10310000375FA9E0FA2EF90E4F2C512CF31618F365
:10311000632E712CC20186199709843091056CF4D5
:1031200082309105A4F4009781F0019779F73F5F11
:10313000FFEEAF2EF0E0BF2E15C0089774F43C5F91
:103140007BECA72E70E0B72E0DC03F5FDFCF3E5F58
:10315000EDEDAE2EE0E0BE2E05C0385F69EBA62E89
:1031600060E0B62EA114B10489F2812C912C5AEFA3
:10317000E52E00E010E020E0A501B301C4013EA768
:103180000E94870A40E1840E911C3EA580E88816C3
:10319000910469F7BBCFB6010E94341B5B0188E242
:1031A000A80EB11CC901B6010E94341B9B012B5A09
:1031B0003F4FA216B3060CF49501C301B6010E945D
:1031C000341B5B0198E2A90EB11CCF01B6010E942D
:1031D000341BAB014B5A5F4F4A155B050CF4A5013C
:1031E0004F5F421BB801C9010E9476090F5F1F4F54
:1031F0009401C201F101370148E6241649E0340682
:10320000A9F0490145E5841A91082C0148E2441AC5
:1032100051081F014BE2240E311C730148E5E40EF6
:10322000F11C0034110509F0B6CFE0CFD090820137
:10323000F0900001EE24E39403E012E02D2D49EF1D
:1032400052E068E270E08F2D90E00E94870A0E94B1
:10325000E21384FF12C080918C01823039F08430F7
:1032600039F0813051F410928C0105C081E001C029
:1032700082E080938C01109283010E94E21383FF0D
:1032800012C00E94C9098111109283018091B30577
:1032900080FD09C081E08D0D823018F48093820199
:1032A00002C0109282010E94E21385FF04C085E0F3
:1032B0008F1508F448C00E94E21386FF05C0809174
:1032C0000001823508F443C00E94E21384FD18C057
:1032D0000E94E21387FD14C08091B3059091B4055C
:1032E0008F709927892B61F480918C011816CCF589
:1032F000823089F1843089F1813011F410928C018F
:103300000E94A10C80E090E0892B09F420CD0E945E
:1033100000001DCD80E88093850181E080939F05AA
:1033200086E790E09A83898361E008C082E0809319
:103330009F0586E790E09A83898362E0CE0101963B
:103340000E94F714DDCFFA94F0920001B4CF8F5FA2
:1033500080930001B9CF81E001C082E080938C01AD
:10336000CFCF882369F20E94C909CACFEFECF5E0FC
:103370001382128288EE93E0A0E0B0E0848395830C
:10338000A683B78382E491E0918380838FEF9FEFE0
:1033900095878487ECEAF5E0138212821186128603
:1033A00080E18387108617821586108A1786128A15
:1033B000118A81E0838B148A858B168A20E631E09E
:1033C000318320832EE631E0358324832EEB31E1F7
:1033D00030939C0520939B0520E030E830939A05BC
:1033E0002093990546983E9A47983F9AE2EAF5E07D
:1033F0001382128224E531E03183208398E09187A3
:10340000808715821682148287831092A105EDE9C8
:10341000F5E081E4808382E58183128208950F9331
:103420001F93CF93DF938C0181E090E00E94AF1A4D
:1034300080FF31C08AE090E00E94AF1A9FEF980FA2
:103440009E3F48F522E330E0D80150963C932E93FE
:103450001F9728E330E052963C932E935197CBE090
:10346000D0E0D801ED91FC910190F081E02D682F22
:10347000C8010995CE010E94AF1A2196C131D1052C
:1034800081F70E94A10C88EE93E0DF91CF911F910C
:103490000F910C94DD13DF91CF911F910F9108953F
:1034A00004970C940F1A8F929F92AF92BF92CF9273
:1034B000DF92EF92FF92CF93DF93EC0168817981E5
:1034C0008A819B81611571058105910521F464E272
:1034D00079ED8BE597E02DE133EF41E050E00E947C
:1034E000C51A49015A019B01AC01A7EAB1E40E9447
:1034F000E41A6B017C01ACEEB4EFA50194010E94CB
:10350000F21ADC01CB018C0D9D1DAE1DBF1DB7FF56
:1035100003C00197A109B04888839983AA83BB831C
:10352000BC01CD019F77DF91CF91FF90EF90DF90AD
:10353000CF90BF90AF909F908F9008950E94531AA4
:1035400008958DE091E00E94531A089560930D0153
:1035500070930E0180930F01909310010895F999D3
:10356000FECF92BD81BDF89A992780B50895262F88
:10357000F999FECF1FBA92BD81BD20BD0FB6F89458
:10358000FA9AF99A0FBE01960895052E97FB1EF43C
:1035900000940E94DC1A57FD07D00E94F71A07FC1E
:1035A00003D04EF40C94DC1A50954095309521953B
:1035B0003F4F4F4F5F4F089590958095709561955F
:1035C0007F4F8F4F9F4F08950E94191BA59F900D0D
:1035D000B49F900DA49F800D911D11240895B7FFF5
:1035E0000C94E41A0E94E41A821B930B0895A1E242
:1035F0001A2EAA1BBB1BFD010DC0AA1FBB1FEE1F6D
:10360000FF1FA217B307E407F50720F0A21BB30BB7
:10361000E40BF50B661F771F881F991F1A9469F733
:1036200060957095809590959B01AC01BD01CF018F
:103630000895A29FB001B39FC001A39F700D811D8B
:103640001124911DB29F700D811D1124911D0895AB
:10365000991B79E004C0991F961708F0961B881FE4
:103660007A95C9F78095089597FB072E16F4009474
:1036700007D077FD09D00E94481B07FC05D03EF417
:10368000909581959F4F0895709561957F4F08950E
:10369000AA1BBB1B51E107C0AA1FBB1FA617B70778
:1036A00010F0A61BB70B881F991F5A95A9F7809594
:1036B0009095BC01CD010895EE0FFF1F0590F49188
:1036C000E02D099481E090E0F8940C94671BF89445
:0236D000FFCF2A
:1036D2002C00E1000000000000FFFFFFFF010000DE
:1036E2000000080400020002060C141E2A38000220
:1036F200070D16212D3B0003080E1823303E01034F
:1037020009101A26334201040A121C283646000008
:103712000000850DEC0C5F0E9B0DA60D630E810E55
:1037220000000000C8117911C311C211000000008D
:1037320008147911C311C2110F1AFCFF0000501AAC
:0837420000C1808100000000BD
:00000001FF
